:100000000C94A9020C94F0020C94F0020C94F002EF
:100010000C94F0020C94F0020C94F0020C94F00298
:100020000C94F0020C94F0020C94081A0C94C4196D
:100030000C94051B0C94F0020C94F0020C94F0024A
:100040000C94F0020C94F0020C94F0020C94F00268
:100050000C94F0020C94E11A0C94F0020C94F0024F
:100060000C94F0020C94F0020C94F0020C94F00248
:100070000C94F0020C94F0020C94F0020C94F00238
:100080000C94F0020C94F0020C94F0020C94F00228
:100090000C94F0020C94F0020C94F0020C94F00218
:1000A0000C94F0020C94F0020C94F0020501090289
:1000B000A10185020901A100050919012905150001
:1000C00025019505750181029501750381010501E1
:1000D000093009311581257F950275088106093897
:1000E0001581257F950175088106050C0A380215D2
:1000F00081257F950175088106C0C005010980A191
:1001000001850319012AB700150126B7009501756D
:10011000108100C0050C0901A101850419012AA064
:1001200002150126A002950175108100C005010984
:1001300006A1018506050719E029E71500250195A7
:1001400008750181020507190029EF1500250195A1
:10015000F0750181020508190129059505750191C0
:1001600002950175039101C00660FF0961A10109B3
:1001700062150026FF0095207508810209631500AD
:1001800026FF00952075089102C005010906A1010E
:10019000050719E029E71500250195087501810279
:1001A0009501750881010507190029FF150026FF33
:1001B0000095067508810005081901290595057542
:1001C000019102950175039101C00000000000003B
:1001D000000000000000000000000000000000001F
:1001E00000000000000000000000000000007E0F82
:1001F00000D4FFFFFFC700000078000000000000EF
:1002000000002A2B28000000000000000000000071
:10021000000000000029000000002C1E34202122D4
:1002200024342627252E362D3738271E1F2021223D
:10023000232425263333362E37381F0405060708B6
:10024000090A0B0C0D0E0F101112131415161718A6
:10025000191A1B1C1D2F3130232D350405060708E4
:10026000090A0B0C0D0E0F10111213141516171886
:10027000191A1B1C1D2F3130354C29003A003B0048
:100280003C003D003E003F004000410000004200B5
:100290004300440045004C00460035001E001F008E
:1002A0002000210022002300240025002600270032
:1002B0002D002E0000002A004A002B0014001A0016
:1002C0000800150017001C0018000C001200130095
:1002D0002F003000000031004D00390004001600EE
:1002E000070009000A000B000D000E000F0033008C
:1002F00034000000320028004B00E10031001D00F6
:100300001B00060019000500110010003600370020
:1003100038000000E50052004E00E000E300E2007B
:100320000000000000002C00000000000000E600BB
:10033000E700E400500051004F00010001000100FF
:1003400001000100010001000100010000000100A6
:100350000100010001000100010001000100010095
:100360000100010001000100010001000100010085
:100370000100010001000100010001000100010075
:100380000100010001000100010001000100010065
:100390000100010000000100010001000100010056
:1003A0000100010001000100010001000100010045
:1003B0000100000001000100010001000100010036
:1003C0000100010001000100010001000100010025
:1003D0000100000001000100010001000100010016
:1003E000000000000000010000000000000001000B
:1003F00001000100010001000100010001000100F5
:1004000001000100010001000100010000000100E5
:1004100001000100010001000100010001000100D4
:1004200001000100010001000100010001000100C4
:1004300001000100010001000100010001000100B4
:1004400001000100010001000100010001000100A4
:100450000100010000000100010001000100010095
:100460000100010001000100010001000100010084
:100470000100000001000100010001000100010075
:100480000100010001000100010001000100010064
:100490000100000001000100010001000100010055
:1004A000000000000000010000000000000001004A
:1004B0000100010001000100010009025B000301CD
:1004C00000A0FA0904000001030101000921110143
:1004D00000012240000705810308000A0904010009
:1004E000020300000009211101000122220007057A
:1004F0008203200001070503032000010904020014
:10050000010300000009211101000122BC000705C0
:10051000840320000A1201000200000008C02175B7
:100520000701000102000118035400680065002063
:10053000004D0061006E007400610037003500005E
:10054000000A035200690063006F00000004030901
:10055000040011241FBECFEFDAE0DEBFCDBF04B62A
:1005600003FE27C08091670290916802A091690202
:10057000B0916A028730904BA740B04BD1F41092F3
:100580006702109268021092690210926A0214BE09
:1005900084B7877F84BF0FB6F894A89580916000D8
:1005A000886180936000109260000FBEE0E0F8E385
:1005B000099511E0A0E0B1E0E0EDFFE302C0059095
:1005C0000D92A436B107D9F722E0A4E6B1E001C04C
:1005D0001D92A736B207E1F70E942C1B0C94AF1FA7
:1005E0000C940000E8EDF0E080818E7F8083109213
:1005F000E2001092DA001092E100A0EEB0E08C91DF
:1006000081608C9380818F77808319BCA7EDB0E0E7
:100610008C918E7F8C9380818F7E808310923402A8
:1006200008952091E4003091E50095E6A90120911C
:10063000EC00822F817020FF06C08091E80080FFCF
:1006400006C080E008952091E80022FD1AC0809144
:100650005902882389F0853089F08091EB0085FD6F
:100660000FC02091E4003091E50042175307F9F2E2
:100670009150E1F684E0089582E0089583E00895C2
:1006800081E00895EF92FF920F931F93CF937C0127
:100690008B010E941103C82F811117C08091E800BF
:1006A00085FD0BC08091E8008E778093E8000E9462
:1006B0001103882399F3C82F08C0F70181917F01A6
:1006C0008093F1000150110949F78C2FCF911F91B0
:1006D0000F91FF90EF90089580915B0287FF13C008
:1006E0008091E80082FF06C08091E8008B778093BC
:1006F000E80004C0809159028111F2CF08958091E1
:1007000059028823D9F38091E80080FFF8CF8091C7
:10071000E8008E77ECCF982F9093E900242F762F66
:1007200050E0891731F07091EC002091ED0050916C
:10073000F00021FD07C09F5F973071F78093E900BB
:1007400081E008953091EB003E7F3093EB003091D3
:10075000ED003D7F3093ED003091EB003160309340
:10076000EB007093EC002093ED005093F00020918B
:10077000EE0027FDE0CF80E00895CF92DF92EF9268
:10078000FF920F931F93CF93DF93C8EDD0E0888142
:100790008F7E8883E7EDF0E080818160808384E054
:1007A00082BF81E08093340288818E7F888302EE4D
:1007B00010E0F80110821092DA0081EEC82ED12CE0
:1007C000F601108288818F7788838881806888838A
:1007D00088818F7D888319BC1092590210925A0229
:1007E000109258021092570290EEE92EF12CF70168
:1007F00080818B7F808388818160888342E060E094
:1008000080E00E948B03F60180818E7F8083F80157
:10081000808181608083808188608083F70180810E
:100820008E7F8083888180618883DF91CF911F9143
:100830000F91FF90EF90DF90CF900895FC01809191
:1008400061029091620286179707A0F06115710509
:1008500029F49091E8009E779093E80090E061156C
:10086000710551F4911108C08091E80082FF34C0F5
:1008700080E00895BC01F2CF809159028823C1F134
:100880008530C1F18091E80083FD30C08091E8009F
:1008900082FDEACF8091E80080FFE1CF8091F300F4
:1008A0002091F200382F6115710519F028303105BB
:1008B00058F091E02830310509F090E02091E800EF
:1008C0002E772093E800CBCF81918093F100615087
:1008D00071092F5F3F4FE7CF80915902882341F084
:1008E000853041F08091E80083FFBECF81E008951C
:1008F00082E0089583E00895089580913602089576
:100900009C014FB7F89480912B0290912C02A091FA
:100910002D02B0912E024FBF821B930B08952FB76B
:10092000F89480912B0290912C02A0912D02B0910D
:100930002E022FBF089520910C012223C9F020918F
:100940002F0227FF15C0E62FE695E695E695EE31D6
:10095000D8F4E80FF92FF11D677021E030E001C0F5
:10096000220F6A95EAF72095828128232283089531
:10097000FC01329608962191621303C0DF011197A2
:100980001C92E817F907B9F7089520910C0122236A
:10099000C1F020912F0227FF14C0E62FE695E695BF
:1009A000E695EE31F8F4E80FF92FF11D677021E0BC
:1009B00030E001C0220F6A95EAF78281822B8283A0
:1009C0000895FC0132962FEF30E04191641751F009
:1009D0002F3F19F4411101C0232F3F5F3630A9F793
:1009E0002F3F09F40895820F911D27FD9A95FC0170
:1009F000628308952091280230912902281739072F
:100A000071F09093290280932802E0912602F091E0
:100A10002702309721F00084F185E02D0994089594
:100A200020912402309125022817390771F0909304
:100A3000250280932402E0912602F091270230974C
:100A400021F00680F781E02D09940895E0912602B7
:100A5000F0912702309721F00190F081E02D099468
:100A600080E008950E948F049C0190912002809163
:100A70002102982B21F030931D0220931C029091AB
:100A8000220280912302982B21F030931B022093A5
:100A90001A02E0912602F0912702309749F082E095
:100AA00080931E020480F581E02D8EE192E009948E
:100AB000089590912002803F59F48091210287FF90
:100AC0000DC01092210291110BC01092180208C0A3
:100AD000813F81F48091210218169CF3992381F0C3
:100AE0008091220290912302892B09F064C0109218
:100AF00017020895823F49F497FFF0CF1092200229
:100B0000809121028111ECCFE0CF833F19F41916B7
:100B1000ACF3E4CF20912202893F29F41216F4F6B7
:100B200010922202DBCF8A3F19F427FFD7CFF8CFEC
:100B3000209123028B3F29F427FFD0CF109223026C
:100B4000CDCF8C3F19F41216CCF3C8CF843F31F4CB
:100B500080911F028E7F80931F02C0CF853F21F4BA
:100B600080911F028D7FF7CF863F21F480911F0275
:100B70008B7FF1CF873F21F480911F02877FEBCFDE
:100B8000883F21F480911F028F7EE5CF8D3F31F4A5
:100B9000809119028E7F80931902A0CF8E3F21F49D
:100BA000809119028D7FF7CF8F3F09F097CF809109
:100BB00019028B7FF0CF08958091190280FD16C035
:100BC00081FD16C082FD16C0809117028823A1F016
:100BD000883280F428E0829FC001112468E270E02E
:100BE0000E942B1F862F672B39F0089582E008950D
:100BF00084E0089588E0089581E0089580911902C5
:100C000080FD14C081FD14C082FD16C080911802C1
:100C1000882381F0843180F422E3829FC001112473
:100C200064E170E00E942B1F862F08958CE00895E8
:100C300089E1089585E0089582E30895803F31F4C5
:100C40000E94FE058195809321020895813F19F449
:100C50000E94FE05F8CF823F31F40E94FE05819587
:100C6000809320020895833F19F40E94FE05F8CF77
:100C7000893F29F40E94DC058093220208958A3F6F
:100C800021F40E94DC058195F7CF8B3F31F40E945F
:100C9000DC0581958093230208958C3F19F40E940E
:100CA000DC05F8CF843F31F480911F02816080938E
:100CB0001F020895853F21F480911F028260F7CFC3
:100CC000863F21F480911F028460F1CF873F21F499
:100CD00080911F028860EBCF883F21F480911F0232
:100CE0008061E5CF8D3F31F480911902816080935E
:100CF000190208958E3F21F4809119028260F7CF86
:100D00008F3FB9F7809119028460F1CF80E0089598
:100D1000F894E82FE295EF70F0E031A1282F2F70C2
:100D200081E090E001C0880F2A95EAF7982F90950E
:100D3000932391A392A1892B82A3789408959091F3
:100D40002F0292FF06C0282F28712830F9F4877FE0
:100D5000846093FF06C0282F28712831F1F4877E24
:100D600084612091300220FF06C0382F387138305E
:100D7000D9F4877F816021FF06C0282F2871283190
:100D8000D1F4877E816194FD877E0895282F247198
:100D90002430F9F68B7F8860DCCF282F2471243132
:100DA00001F78B7E8861DDCF382F3171313019F733
:100DB0008E7F8860E0CF282F2171213121F78E7E30
:100DC0008861E1CFCF93DF93EC0182389105A9F1DF
:100DD000D8F58133910509F496C048F5893291051B
:100DE00009F48AC08A9709F495C0C11521E5D20794
:100DF00008F0BCC0C11530E5D30708F014C1C83EE7
:100E0000D10508F09CC0C03ED10560F5C83AD105B7
:100E100008F087C0C53AD10508F0FDC0C130D10542
:100E200009F12097F9F0C430D105E0F440C08533D2
:100E3000910509F45AC0C997C1F680912F028370B9
:100E400089F0C0EED0E00EC0833E910599F170F4B8
:100E5000803E910501F1823E910539F680912F0285
:100E600082FD21C0CE01DF91CF910895863E91058C
:100E700061F1873E910571F1843E910509F0B5CF8E
:100E80008091300281FFEECF80912F02C7EED0E03B
:100E900084FD0DC0E7CF80912F0280FD12C190919B
:100EA000300290FFDFCFC3EED0E084FFDBCFD0E095
:100EB000C0E0D8CF80912F0282FD06C19091300210
:100EC00090FDBFCF84FFCECFF2CF80912F0283FD64
:100ED000DDCFC8CF80912F0283FDF9C09091300201
:100EE00091FFF0CFC4EED0E0BDCF80912F0285FFFF
:100EF000B9CFC9E2D0E0B6CF80912F0285FFB2CF43
:100F0000C5E3D0E0AFCF80912F0286FFABCFCAE21E
:100F1000D0E0A8CF80912F0286FFA4CFC1E3D0E01C
:100F2000A1CFCF3BD10518F6C85AD0E0CC0FDD1FBA
:100F3000C05FDE4F0990D881C02DD46493CFC11516
:100F400040E2D40758F4C11581E0D80708F08ACFF1
:100F5000C03FD10508F4ABCFD06584CFC11590E474
:100F6000D90708F4A4CFDF70D06A7CCFC11525E57E
:100F7000D20700F5C11534E5D30708F08AC0C115C2
:100F800043E5D40708F071C0C11582E5D80708F41D
:100F900067C0CE018370992721E030E002C0220FA4
:100FA000331F8A95E2F7C695C69580E2C89FE00197
:100FB000112452C0C11599E5D907A8F4C11528E537
:100FC000D20708F06BC0C11536E5D30708F06FCF24
:100FD0008C2F0E949F06C82FD0E0DC2FCC27CC2777
:100FE000DF71D0623FCFC1154AE5D40708F45BC07A
:100FF000CE0190568115904208F059CF8D2F8F71F8
:101000000E949F0690E0982F882788279F719C0157
:101010002C2BE901E6CFC55AD0E0C35FDE4FC88173
:10102000D0E0D0641FCFCE01E4E096958795EA9595
:10103000E1F783702C2F26952695237040E2249F9C
:1010400090011124382B8C2F8370C1E0D0E002C0B6
:10105000CC0FDD1F8A95E2F7C22BD32BDC6802CFC1
:10106000DC2FCC27C16FD06AFDCECE0183709927CB
:1010700021E030E002C0220F331F8A95E2F7C695C7
:10108000C69590E2C99FE0011124C22BD32BDA68E8
:10109000E9CEDC2FCC27C46FD06AE4CEDC2FCC277E
:1010A000C06FD06ADFCE8C2F8F700E949F0634E015
:1010B000D695C7953A95E1F7CF709C2FEC01D06992
:1010C000D1CEC9E3D0E0CECEC2EED0E0CBCEC6EEDC
:1010D000D0E0C8CE8091EC01882331F01092EC0171
:1010E0001092EB011092EA01089580959091E90128
:1010F00098239093E90108958091E9019091E80186
:10110000892B9091E701892B809366018091EC01F6
:10111000882329F10E948F042091EA013091EB018C
:10112000821B930B8838934110F00E946A088091CB
:1011300066019091EC01892B8093660180910C01EE
:10114000882341F180912F0287FF24C08EE1E8E6D9
:10115000F1E090E0815000F591110E946A08E09161
:101160002602F09127023097E1F080910C0188234C
:1011700059F080912F0287FF07C08091660180930C
:10118000670186E0809366010280F381E02D86E6A8
:1011900091E0099486E0DBCF21912223D9F29F5F71
:1011A000D9CF08951092E6011092E5011092E40162
:1011B00008958091E30181111092E30108958091D7
:1011C000E2019091B101981301C008958F5F87707B
:1011D000FACF9295907F890F982F97708695869574
:1011E000869523E0829FF0011124E957FE4F50E0DD
:1011F00040E080E0219130E0092E02C0369527952D
:101200000A94E2F721703327042E01C0220F0A94BA
:10121000EAF7822B4F5F5F4F4330510559F708952E
:101220009295907F890F982F977041E001C0440FED
:101230009A95EAF786958695869593E0899FF001C1
:101240001124E957FE4F30E020E070E05191DF01BA
:101250001197CB01022E02C0969587950A94E2F76A
:10126000817081958527842385278C932F5F3F4F3D
:101270002330310559F7089590E080E00E94100571
:1012800090E080E00E94FA041092E8011092E701D9
:101290000E947C0886E0EEE1F2E0DF011D928A9573
:1012A000E9F71092180210921702109219020C948A
:1012B0003205809366020C943C0980916602982F57
:1012C0009670963019F488600C945909877FFCCF8A
:1012D00021E030E001C0220F8A95EAF72095809145
:1012E000660282230C9459099091E6018095892326
:1012F0008093E601282F277091F4282F082E000CE8
:10130000330B9217130659F09091300292FD07C0EB
:101310008595859585950E9468090C94D208089555
:1013200021E030E001C0220F8A95EAF78091660241
:10133000822B0C9459099091300292FD10C098E0D4
:10134000899F90011124622B6093E6010E9490090D
:101350000E948F049093E5018093E40108950C941A
:1013600090098093ED010C943C09882321F00E94A0
:1013700075080C947C080895882339F09091E90150
:10138000982B9093E9010C947C080895882379F1B7
:101390009CEF980F913A38F4682F86E691E00E940E
:1013A0009B040C947C0890E2980F983050F487705E
:1013B00091E001C0990F8A95EAF7892F0E9475087C
:1013C000F0CF9BE5980F933020F490E080E00C94F0
:1013D000100598E5980F973120F490E080E00C9488
:1013E000FA04803F20F00E9459050C9432050895BC
:1013F000CF93C82F882309F46FC08CEF8C0F813AEC
:10140000C0F580910C01882311F180912F0287FF94
:101410001EC0EC2FE695E695E695F0E0EA59FE4F02
:10142000828190E04C2F477021E030E002C0220F13
:10143000331F4A95E2F782239323892B91F06C2F77
:1014400086E691E00E949B040E947C080AC0E8E6C0
:10145000F1E08EE691E02191C21789F38E179F0784
:10146000D1F76C2F86E691E00E94C504CF910C94D1
:101470007C0880E28C0F883068F4C77021E030E08F
:1014800001C0220FCA95EAF78091E901822B80936F
:10149000E901ECCFEBE5EC0FE33040F4F0E0E35F83
:1014A000FE4F808190E0CF910C941005E8E5EC0FA1
:1014B000E73150F4F0E0EE0FFF1FE05FFE4F808158
:1014C0009181CF910C94FA04C03F30F08C2F0E9490
:1014D0001E06CF910C943205CF910895809331026E
:1014E0007093330260933202809159028430F9F490
:1014F0008093E9008FEF9091E800815095FD06C040
:1015000095ED9A95F1F700008111F5CF8091E800F3
:1015100085FF0DC050E040E063E070E081E392E0C1
:101520000E9442038091E8008E778093E80008953E
:10153000BC0184E00C946E0ABC0183E00C946E0A3A
:101540009C0184E08093E9009FEF8091E800915036
:1015500085FD06C085ED8A95F1F700009111F5CF64
:101560008091E80085FF0CC050E040E066E070E04C
:10157000C9010E9442038091E8008E778093E800C1
:101580000895CF93DF93EC0180910C018823B1F192
:1015900080912F0287FF32C060E284E08093E900EF
:1015A0008FEF9091E800815095FD06C095ED9A95DA
:1015B000F1F700008111F5CF8091E80085FF1BC095
:1015C00080910C0170E050E040E0811104C050E0D7
:1015D00040E068E070E0CE010E9442038091E800A4
:1015E0008E778093E80080E2FE01A7E3B2E00190ED
:1015F0000D928A95E1F7DF91CF91089568E081E03F
:10160000CDCF81E08093E00080E28093D8001092FB
:10161000C9008FE19EE40197F1F700C0000087E068
:1016200090EBDC018093670290936802A0936902BB
:10163000B0936A0288E19CE00FB6F894A895809375
:1016400060000FBE90936000FFCF1F93CF93DF9396
:10165000182FD0E0C0E0893311F4C0E5D0E0812F2D
:101660000E94F809209731F4812FDF91CF911F91CB
:101670000C94C6098FE99FE00197F1F700C00000C4
:101680002197F0CF0F931F93CF93DF93C62FD42FC3
:10169000022FFC0182818823A1F0609365020E94E1
:1016A0008F049093640280936302C77081E001C04D
:1016B000880FCA95EAF7DF91CF911F910F910C9493
:1016C000BC0980916502681335C0809163029091D6
:1016D00064020E948004883C910560F510E21D0FB1
:1016E000CD17B9F080E28C0F883040F4C77081E0EC
:1016F00001C0880FCA95EAF70E94B509183048F46E
:1017000081E09D2F977001C0880F9A95EAF70E949B
:10171000BC09802F0E94250B183098F4D77081E007
:1017200001C0880FDA95EAF7DF91CF911F910F91F1
:101730000C94B509C77081E001C0880FCA95EAF71B
:10174000F3CFDF91CF911F910F910895AF92BF9288
:10175000CF92DF92EF92FF920F931F93CF93DF937D
:10176000EC018AE0A82E2881222309F48CC02130C4
:10177000C9F599818A81913021F422960E94250B26
:1017800005C0923029F422960E94F8092196EBCFE9
:10179000933021F422960E94C609F8CF943011F0BC
:1017A0002196F4CF229630E020E0AE014F5F5F4FEC
:1017B0008053990B8A30910550F02150310930F354
:1017C0008FE99FE00197F1F700C00000F6CFA29EDD
:1017D000B001A39E700D11249C01260F371F898133
:1017E000EA01E3CFE22FF0E0E650FE4FB490822F03
:1017F00086958695869590E0FC01E651FE4FE49033
:101800002770F12C022E02C0F594E7940A94E2F7B7
:1018100031E0E322FF24FC01E652FE4FC490D12CBC
:10182000022E02C0D594C7940A94E2F731E0C32295
:10183000DD24FC01E653FE4F049110E002C0159533
:1018400007952A95E2F701701127E114F10419F0C8
:1018500081EE0E94F809C114D10419F086EE0E94AD
:10186000F8098B2D0E94250BCD2819F086EE0E94D9
:10187000C609EF2819F081EE0E94C609012B09F470
:1018800085CF8CE27BCFDF91CF911F910F91FF909D
:10189000EF90DF90CF90BF90AF900895CF93DF93FC
:1018A000C7E6D2E060E0CE010E946E1F2196C1150E
:1018B00084E0D807B9F7DF91CF9108951F93CF93B4
:1018C000DF93122F8330F8F46630E8F44031D8F417
:1018D00090E2699FE001112450E0440F551FC40FAE
:1018E000D51F90EC899FC00DD11D1124632FCE010F
:1018F00087960E946E1F612FCE018896DF91CF914F
:101900001F910C946E1FDF91CF911F910895AF929C
:10191000BF92CF92DF92EF92FF921F93CF93DF930C
:101920008AE7C82E82E0D82ED0E07601C0E014C04D
:10193000F50125913491412F6C2F8D2F0E945E0C63
:1019400082E0A80EB11C1F5F103191F780E2E80E13
:10195000F11CCF5FC63019F0570110E0E9CFDF5F0F
:1019600080ECC80ED11CD33001F7DF91CF911F91CD
:10197000FF90EF90DF90CF90BF90AF900895CF93FE
:10198000C82F6FEF811162E283E290E00E946E1F28
:101990006FEFC11161E084E290E00E946E1F6FEF73
:1019A000C11165E185E290E0CF910C946E1F80E05B
:1019B0000E94BF0C60E086E290E00E946E1F0E94D1
:1019C000870C0E944E0C81E00C94BF0CCF93C09109
:1019D0003002C2FB992790F9981799F080FBC2F961
:1019E000C093300260912F0284E090E00E946E1F4D
:1019F0006C2F82E290E00E946E1F82E0CF910C94E7
:101A00007409CF9108950F931F93CF93DF93833081
:101A100030F5663020F5403110F520E2629F8001FC
:101A2000112450E0440F551F040F151F30EC839F05
:101A3000000D111D1124C80187960E94601FC82F38
:101A4000D0E0DC2FCC27C80188960E94601F9E0141
:101A5000282BC901DF91CF911F910F91089590E03C
:101A600080E0F8CF462F833038F4763028F46031A8
:101A700018F4672F0C94030D90E080E00895CF9246
:101A8000DF92FF920F931F93CF93DF936C0100912E
:101A900066028091ED01082BC7E0D0E010E0FC2E3B
:101AA000C8010C2E02C0959587950A94E2F780FD37
:101AB0000CC02197A0F7F12C8F2DDF91CF911F91B2
:101AC0000F91FF90DF90CF900895B6018C2F0E9468
:101AD000320D0E94E206019761F3EECFCF93DF93C0
:101AE000EC010E943F0DBE010E94320DDF91CF91AB
:101AF0000C94E206FC01808191810E946E0D292FD9
:101B00002F7092959F7092509E3078F4E92FF0E0FC
:101B1000EF54F04E0C943F1F803F19F020F4883EA4
:101B200020F481E00895843FE1F380E00895883E49
:101B3000C0F3813FD1F7F5CF822F869586958695A4
:101B4000089583E290E00E94601F823289F484E26B
:101B500090E00E94601F813059F485E290E00E947D
:101B6000601F91E0853109F090E0892F8170089520
:101B700080E0FCCFCF9384E090E00E94601FC82FEC
:101B800082E290E00E94601F982F8C2FCF910895E1
:101B90001092E90180910C01E8E6F1E0882359F008
:101BA00080912F0287FF07C08EE1DF011D928A9589
:101BB000E9F70C943C0986E0F8CF1F93CF93DF93AD
:101BC000CDB7DEB7AA970FB6F894DEBF0FBECDBF74
:101BD0008BE592E02091F100DC012D93CD01B2E084
:101BE00083369B07B9F780915C02833009F472C099
:101BF000B8F4813009F449C0823009F4B3C080914F
:101C0000E80083FF8BC280915B0290915C029A3066
:101C100008F084C2E92FF0E0E154F04E0C943F1F2D
:101C20008A3009F48EC08B3009F471C0893039F7DD
:101C300080915B02813219F780915F02909160027E
:101C4000009711F00297D9F68091E800877F809382
:101C5000E8008091E80082FF38C09091F300809105
:101C6000F200029731F48091F100813011F086305A
:101C700021F48091F100809336028091E8008B7707
:101C80008093E8000E946C03BACF80915B02813A96
:101C900009F0B5CF8091E800877F8093E8008091BC
:101CA0005F0290916002892B61F460E287E392E029
:101CB00070E00E941E048091E8008B778093E8001A
:101CC0009ECF60E090E080E0F3CF809159028111D7
:101CD000C0CF95CF80915B02813A09F090CF80917F
:101CE0005F0290916002892B09F089CF8091E80012
:101CF000877F8093E8008091E80080FFFCCF80918F
:101D00000C018093F1008091E8008E77B9CF80912B
:101D10005B02813209F073CF80915F029091600283
:101D2000892B09F06CCF8091E800877F8093E800D1
:101D30000E946C0380915D0280930C010E94C80D8B
:101D40005ECF80915B02813209F059CF8091E8002B
:101D5000877F8093E8000E946C0380915E028093ED
:101D600035024DCF80915B02813A09F048CF8091D6
:101D7000E800877F8093E8008091E80080FFFCCF37
:101D800080913502BECF803899F0823809F0C6C103
:101D900080915F028F70873008F0C0C18093E900A6
:101DA0008091EB0085FB882780F91092E90006C03E
:101DB0008091570290915802911182609091E800B1
:101DC000977F9093E8008093F1001092F10080914A
:101DD000E8008E779FC1882309F48DC1823009F015
:101DE0009DC180915D02811190C180915F028F70D1
:101DF0002FEF280F263008F091C18093E900209141
:101E0000EB0020FF82C1933031F48091EB008062BF
:101E10008093EB007AC19091EB0090619093EB007E
:101E200021E030E001C0220F8A95EAF72093EA0012
:101E30001092EA008091EB008860EACF81116EC1B8
:101E400010915D021F778091E3008078812B809351
:101E5000E3008091E800877F8093E8000E946C0394
:101E60008091E80080FFFCCF8091E3008068809340
:101E7000E30082E0111183E0809359024FC1805842
:101E8000823008F04BC120915D0230915E022C3D02
:101E9000E3E03E07A1F583E08A838AE289834FB7B6
:101EA000F894DE01139620E03EE051E2E32FF0E0EB
:101EB00050935700E49120FF03C0E295EF703F5F1D
:101EC000EF708E2F90E0EA30C0F0C7968D939D930F
:101ED0002F5F243159F74FBF8091E800877F8093AF
:101EE000E8006AE270E0CE0101960E941E04809133
:101EF000E8008B778093E80011C1C096E7CF80910E
:101F00005F0290916002432F55274330510509F439
:101F10004AC078F54130510509F47AC08BE590E06C
:101F2000EAEBF4E04230510509F0F8C02091E800F6
:101F3000277F2093E800209161023091620282178E
:101F4000930708F49C0140E02115310509F065C0B4
:101F5000411163C08091E80082FDC9CF8091590290
:101F6000882329F2853019F28091E80083FFF2CFAF
:101F7000BECF4132510509F43CC04232510509F04F
:101F8000CDC08330910508F0C9C0FC01EE0FFF1FE2
:101F9000E95AFE4F0190F081E02D8C5A9E4FDC01F2
:101FA0008C9190E01AC0332721303105D1F02115F2
:101FB000310561F02230310509F0B0C0E7E2F5E00B
:101FC000E4918E2F90E0E7E2F5E007C0EDE4F5E064
:101FD000E4918E2F90E0EDE4F5E0009709F49EC0C7
:101FE000A5CFE1E4F5E0E4918E2F90E0E1E4F5E0A7
:101FF000F4CF8330910508F091C0880F991FFC0140
:10200000E35AFE4F0190F081E02D89E090E08ECF01
:1020100082E190E0E5E1F5E089CF809159028823E3
:1020200009F465CF853009F462CF8091E80083FD23
:102030005ECF8091E80082FD8DCF8091E80080FF27
:1020400083CF9091F3008091F2002115310519F0B2
:102050008830910550F041E0089709F040E0809108
:10206000E8008E778093E8006FCF44914093F100B1
:102070003196215031090196E8CF803809F04EC0E1
:102080008091E800877F8093E80080915A028093D6
:10209000F1009DCE811142C010915D021230F0F529
:1020A0008091E800877F8093E80010935A020E9495
:1020B0006C03112311F084E005C08091E30087FDDB
:1020C000FACF81E08093590242E061EC81E00E9406
:1020D0008B0342E261EC84E00E948B0342E261ECFC
:1020E00082E00E948B0342E260EC83E00E948B035B
:1020F0008091590213C080915D02813079F481E0B2
:10210000933009F080E0809358021092E9008091AA
:10211000E800877F8093E8000E946C038091E800CC
:1021200083FF0AC08091E800877F8093E800809158
:10213000EB0080628093EB00AA960FB6F894DEBFA6
:102140000FBECDBFDF91CF911F9108954F925F9247
:102150006F927F928F929F92AF92BF92CF92DF92B7
:10216000EF92FF920F931F93CF93DF93CDB7DEB71C
:102170002C970FB6F894DEBF0FBECDBF8E010F5F58
:102180001F4F8CE0F80111928A95E9F79EE3E92E42
:1021900091E0F92E680124E4422E21E0522E6624BB
:1021A0006394712C44E5842E41E0942EF7018191D3
:1021B0007F018F3F09F445C0F894E82FE295EF7056
:1021C000F0E021A18F70A30102C0440F551F8A9532
:1021D000E2F7CA01922F982B91A392A180958923AF
:1021E00082A3789400C0E4E4F1E021E030E0B12C77
:1021F000A12C41914F3F09F486C0A42FA295AF7046
:10220000B0E090968C9190E04F7002C095958795C4
:102210004A95E2F780FD77C0C901A82AB92A220FA2
:10222000331F8E169F0629F7F701319780818F3F64
:1022300011F00E94880650EA5A95F1F7F601B18232
:10224000A082F2E0CF0ED11C4E145F0409F0AECF95
:102250004CE050E0B80181EF91E00E94A21FFF2402
:10226000F394009709F4F12C892B09F44FC08CE00A
:10227000F801A1EFB1E001900D928A95E1F781E0BC
:102280008093F0010E948F049093EF018093EE0100
:102290008091EE019091EF010E9480040597D0F1AA
:1022A0008091F1019091F20190930C0280930B02C6
:1022B0008091F3019091F40190930E0280930D02AE
:1022C0008091F5019091F6019093100280930F0296
:1022D0008091F7019091F80190931202809311027E
:1022E0008091F9019091FA01909314028093130266
:1022F0008091FB019091FC0190931602809315024E
:102300001092F00107C090E080E087CF8091F0014B
:102310008111BECF8F2D2C960FB6F894DEBF0FBE65
:10232000CDBFDF91CF911F910F91FF90EF90DF9084
:10233000CF90BF90AF909F908F907F906F905F9065
:102340004F9008956AEE7EEF90E080E00E948C1F2F
:1023500060E082E090E00E946E1F60E083E090E029
:102360000E946E1F1092ED0160E084E090E00E94F8
:102370006E1F60E082E290E00E946E1F60E085E0E8
:1023800090E00E946E1F60E086E090E00E946E1F69
:102390006FEF87E090E00E946E1F40E050E0BA01CE
:1023A00088E090E00E94801F60E08DE090E00E9455
:1023B0006E1F40E050E0BA0188E190E00E94801F6B
:1023C00060E087E190E00E946E1F40E050E0BA01BB
:1023D0008CE190E00E94801F70E060E080E290E07D
:1023E0000E948C1F40E050E0BA0188E190E00E941A
:1023F000801F80E00E94BF0C0E94D70C40E050E09C
:10240000BA018FE090E00E94801F40E050E0BA01E6
:1024100083E190E00C94801F8F929F92AF92BF92C5
:10242000CF92DF92EF92FF920F931F93CF93DF93A0
:1024300000D000D00F92CDB7DEB76C01FC018381D4
:102440009481892B31F08081918189238F3F09F01C
:1024500090C40F900F900F900F900F90DF91CF913D
:102460001F910F91FF90EF90DF90CF90BF90AF90B2
:102470009F908F9008950E943F0D182F682F89819B
:102480009A810E94100969817A81812F0E94320D00
:102490008C01F6018281882309F460C498012251DD
:1024A0003F452031310508F032C48FEF93E00E94A0
:1024B000601F025147E6E42E42E0F42E8823F1F03B
:1024C0008091E601877029F2F6018281882309F460
:1024D000C0CF8091300282FDBCCF82E00E9474099F
:1024E000B8CFE114F4E0FF0659F3C7010E94601F62
:1024F000811101C001502FEFE21AF20A0111F1CF50
:1025000019821A821B821C820FEF47013FEF831A48
:10251000930AC7010E94601F89831A82882381F26F
:10252000813009F047C0570142E0A40EB11CC4013C
:102530000E94601F982E8A83882311F2C5010E9491
:10254000601F182F8FEF890D833068F4570153E017
:10255000A50EB11C1B83112321F0CE0101960E9410
:10256000A60B7501D2CF84E09812FBCF570194E0FF
:10257000A90EB11CC70103960E94601F112309F424
:102580009FCF882309F49CCF8150990B089F90011D
:10259000099F300D1124E12FE150FF0BCF01820F75
:1025A000931F0197F0F2EFE9FFE03197F1F700C0D8
:1025B0000000F7CFCE0101960E94A60B5401D1CFA7
:1025C00081E00E9490090E945D097ACF81E00E941B
:1025D0006809F9CF82E0F5CF053FECE51E0709F465
:1025E0005EC008F458C0063F2CE5120709F45BC032
:1025F000882309F4CFC31092650203303DE5130729
:1026000008F058C00A3F4CE5140730F4C801825066
:102610009C45449708F053C00E94BA0D9093300235
:1026200080932F0200318CE5180709F41BC108F0D4
:1026300097C00830ECE51E0709F406C108F066C033
:1026400004302CE5120709F4EDC008F04FC0023049
:102650004CE5140709F4E0C080912F02826003303A
:102660001C4509F4DCC060912F021091300284E017
:1026700090E00E946E1F612F82E290E00E946E1F28
:102680000E94C80D1DCF27E245EE65EE63C326E22A
:1026900041EE60EE5FC327E245EE64EE5BC326E2E7
:1026A00041EE62EE57C327E245EE66EE53C328E2E1
:1026B00041E0EBCF01365DE5150709F4ADCF0631FA
:1026C0008CE5180709F073C38091E9018A7A91E0DB
:1026D00009F490E09093860169E2811165E386E652
:1026E00091E00E94C5040E947C08EACE06308CE589
:1026F000180709F4A5C080912F02886007301C4597
:1027000008F48DC080912F02806289C080912F02D1
:102710008D7F0C30ECE51E0709F481C070F48091C8
:102720002F028C600A302CE5120709F478C008F4F7
:102730008FC080912F028E7F72C080912F02877F81
:102740000E304CE5140709F46AC080912F028B7F8C
:102750000F301C4508F463C080912F028F7E5FC04C
:102760000C3F8CE5180709F479C068F50431ECE5F5
:102770001E0709F48BC080F402312CE5120709F41E
:1027800075C080912F028F7B03311C4508F447C030
:1027900080912F02837F43C00A3F4CE5140709F460
:1027A00045C008F049C005311C4509F05CCF809157
:1027B0002F0282FB992790F921E0922790FB82F962
:1027C00090FB83F92CC001159DE5190709F454C04D
:1027D00088F48091300283600E3FFCE51F0749F1C9
:1027E000809130028D7F0F3F1C4518F1809130029F
:1027F0008C7F1FC002303DE5130709F456C008F472
:102800004EC001361D4509F02ECF90912F02892F21
:102810008F7E94FF806103C080912F02816080933E
:102820002F0221CF80912F028460F9CF8091300256
:1028300081608093300217CF809130028260F9CF9F
:1028400080912F028061EBCF80912F028064E7CFCF
:102850000E94C80D80912F028068E1CF80913002E4
:102860008E7FE7CF80912F028F7DD9CF0E94C80D38
:1028700080912F028F77D3CF80913002982F90953F
:1028800091708E7F892B90FB81F9D3CF0E94C80D68
:1028900090912F02892F97FB87F98058C0CF61E074
:1028A0008EE090E00E946E1FDECE60E0F9CF0E94C5
:1028B000C80D9FEFE4E3FCE09150E040F040E1F709
:1028C00000C000000E94010B81E091C280E08FC235
:1028D000C8010E94E908F82E9BC2212F2F70F22E0A
:1028E000107F19F0F29490EFF922EE20B9F0FF205A
:1028F00069F080E2800F883010F0811009C080916B
:10290000E901F82AF092E9010E947C08802F4AC070
:102910008091E801F82AF092E801F6CF802F0E941A
:10292000C609FF2009F440C0005E083010F0811095
:1029300004C08F2D0E94750806C0F0948091E801B4
:10294000F822F092E8010E947C082EC0312F3F70DF
:10295000F32E107F103219F0F29480EFF8228820C5
:1029600089F041E0841609F487C0EE2009F490C094
:10297000BB2009F465C0F601858180FFC7CF8F7049
:1029800085835EC08091300282FF35C0EE2069F100
:10299000FF2039F08091E901F82AF092E9010E94C4
:1029A0007C0880E00E94F809292D2850330B243040
:1029B000310510F40E942605AA2009F44ACD809121
:1029C000E60180FD46CDF6011282859585958595B7
:1029D0000E949009C6010E940C128091E601859523
:1029E000859585950E94680934CD80E00E94C609CE
:1029F000FF20D1F29ECFEE2039F1B11004C08091BA
:102A0000EC018F291EC051E0B51210C082FDCCCF61
:102A10008091EC01F82AF81639F20E948F04909305
:102A2000EB018093EA01F092EC01BECF85E0B81291
:102A3000E6CF0E946A088091E301F812F092E30168
:102A40008F2D0E94BC09B0CFB11006C00E946A0849
:102A50008F2D0E94B509A8CF91E0B91208C08091CE
:102A6000E9018F2109F4A0CF0E94D908EFCFE5E05A
:102A7000BE1609F499CFEACFEE2029F0F5E0FB1558
:102A800008F492CFDDCF24E02B1508F48DCFE0CFF2
:102A9000BB20F1F2F9E38F1209C02FEF37EE43E0CC
:102AA000215030404040E1F700C00000802F0E94DC
:102AB000C6097ACF812F86958695837061F0813023
:102AC00009F072CFC8019370E11002C090E080E07D
:102AD0000E94FA0469CFC8019370E11002C090E02F
:102AE00080E00E94100560CF802FEE2029F00E9428
:102AF0001E060E94320558CF0E945905FACF812F39
:102B0000837089F5E11050CF402F4295469547706C
:102B1000440F440F802F8F70042E01C0880F0A9439
:102B2000EAF7202F207104FF07C02FE030E001C03A
:102B3000220F4A95EAF720951695169513701230D4
:102B400069F050F43091ED01113029F0822B83238C
:102B50000E94B10929CF832B822BFACF282B809199
:102B6000ED018227F5CF8695EE2011F0812F81703F
:102B7000882309F419CF402F429546954770440F9A
:102B8000440F802F8F70042E01C0880F0A94EAF73B
:102B9000202F207104FF07C02FE030E001C0220F7A
:102BA0004A95EAF72095169516951370123069F03C
:102BB00050F430916602113029F0822B83230E9459
:102BC0005909F2CE832B822BFACF282B80916602F3
:102BD0008227F5CF1F70EE2029F0812F0E949009E7
:102BE000802F2FCF802F0E94B509812F0E94680966
:102BF000DBCE802F52EF8516A9F1581570F090EFBB
:102C00008916D1F0E1EF8E1691F0EE2009F46FC035
:102C1000B1107CCE812F8F7129C0F3EF8F1649F14F
:102C200024EF8212F2CF8091300282FF2DC0812FDB
:102C30008F71EE20D9F21AC0EE2079F034E03B1506
:102C400008F4B2CE1F7181E090E001C0880F1A95A0
:102C5000EAF7909166028927B2CF45E04B1508F458
:102C6000A3CEF0CF812F8F71E110C0CF0E949009C9
:102C70009BCE80E0EE2009F4A2CF1F7181E001C05D
:102C8000880F1A95EAF79BCF8091E301EE20D9F0E7
:102C90000E9475088091E6018770843041F40E949B
:102CA000D208812F8F710E946809A12C7DCE54E03B
:102CB0005B15D8F31F71812F0E94900963E0812F6B
:102CC0000E949B09F2CF9091E901982B9093E90122
:102CD00084E08B1540F40E94D2080E94D90864E079
:102CE000812F8F71EDCF81E00E947409DECFBB2070
:102CF00059F0893309F0DACE9FEFE7EEF3E0915017
:102D0000E040F040E1F7D0CE812F8F716FCF0031DE
:102D1000FFE51F0709F454CC01312FE5120709F430
:102D200059CC033F2CE5120709F4B1CC08F054CC80
:102D3000083D4CE5140709F4A6CC093D5CE51507F0
:102D400009F4B5CC073D9CE5190709F051CC26E202
:102D500041EE61EEC6010E94420BB2CB00313FE56D
:102D6000130709F433CC01314FE51407D1F682E0A3
:102D70002ECC85E0DE01119601900D928A95E1F747
:102D8000F601228189819A81211175CB0E94E9087F
:102D9000182F79CB06311C4561F58091860169E2D7
:102DA000811165E386E691E00E949B049CCC0A3584
:102DB0002DE5120709F488CD58F401154CE51407E8
:102DC00009F475CD0E3D1C45A1F40E94A21178CBEB
:102DD0000B358DE5180709F479CD0C351D4549F4FF
:102DE0008091300282FB882780F991E089270E9438
:102DF000E60CF601828100811181882309F468CDF7
:102E0000C8010E943F0DF82E682FC8010E941009CA
:102E1000B8018F2D0E94320D0E94E2068C01882E8F
:102E2000F601E280B580B2943FE0B3228091E601E2
:102E30008770C1F0AE2CEE20B1F0812F807F8034FE
:102E400021F080E2800F883068F08091300282FDAE
:102E500009C082E00E9474098091E6018770AA246B
:102E6000A3948111A12C912E92942FE09222FBE049
:102E7000F91508F499CDE92DF0E0E753F04E0C94E4
:102E80003F1F1F93CF93DF938091B001807FA9F400
:102E90008091AD01882389F08091E201D091B10148
:102EA0006091AB017091AC01A091AE01B091AF0106
:102EB000C62FC72316E0D81304C0DF91CF911F910E
:102EC000089590E0109711F0CF3F19F401968770A4
:102ED000F2CF189F9001199F300D1124F901EE5483
:102EE000FE4F41814713F2CF40814613EFCF42811D
:102EF0004111ECCF438154814A1B5B0B483C510587
:102F000028F78091B0018F7080618093B001F90142
:102F1000E954FE4F80818F70806180838BEA91E05D
:102F20000E940C12DF91CF911F910C94DF08AF9299
:102F3000BF92CF92DF92EF92FF920F931F93CF93A6
:102F4000DF93CDB7DEB761970FB6F894DEBF0FBE43
:102F5000CDBF8C0185E0F801DE011D9601900D9238
:102F60008A95E1F7F801E2808BEAA82E81E0B82E7D
:102F70006091AE017091AF016115710509F432C124
:102F80009091AB014091AC01892F84238F3F09F4CC
:102F900029C120813181C380D480F090AD01F60138
:102FA000E61BF70BFF2009F4E8C08091B001582F11
:102FB000507FE83CF10508F0ABC0511177C0FE2C02
:102FC000431321C092131FC0E1101DC08F70806198
:102FD0008093B001C5010E940C128091B001F801EC
:102FE00085838F2D61960FB6F894DEBF0FBECDBFDF
:102FF000DF91CF911F910F91FF90EF90DF90CF90D5
:10300000BF90AF900895CD2829F0822F83238F3F62
:1030100009F003C180E0F82FF170DF2E80FF3CC083
:103020008091E2014091B10156E0841315C02D87D3
:103030003E878D859E850E946E0D292F22952F70CB
:103040002230F0F0243018F59F70F1F0F8019581EE
:10305000907FD1F4D12C1EC090E0589FF001599F71
:10306000F00D1124EE54FE4F6181361306C06081CD
:10307000261303C06281E6120FC001968770D5CF78
:103080009F7011F0882331F3805E883018F3C801F7
:103090000E940C12FD2CA5CFEE2009F4A2CF809146
:1030A000B00181608093B001F12C9BCF431306C027
:1030B000921304C0F801EE2009F479C0C8010E94FF
:1030C0007A0D882309F1EE20F9F08091B001803269
:1030D00070F02091AB013091AC0138872F831986B5
:1030E000DB86CA868C87CE0107960E940C1286E08A
:1030F000F801ABEAB1E001900D928A95E1F70E94E8
:103100004117FF24F3946DCFC8010E940C12F9CF30
:1031100051110AC08BEA91E00E940C1286E0F50181
:1031200011928A95E9F7C0CF43130FC092130DC0D7
:10313000E1100BC0F8018583C8010E940C1286E0E3
:10314000F50111928A95E9F74CCFC8010E947A0DDA
:103150008823D1F2EE20C1F28091B001803238F2A2
:103160002091AB013091AC013A8329831B82DD822F
:10317000CC828E83CE010196B8CFE83CF105F8F6FB
:10318000FE2CEE2009F243131FC092131DC0809144
:10319000B00180FD10C0982F907F69F0F801858301
:1031A000903F31F0982F907F905F8F70892B8583AF
:1031B000C8010E940C1286E0F801ABEAB1E0019070
:1031C0000D928A95E1F70DCFC8010E947A0D811109
:1031D0008ECF8091B00181608093B001C8010E94C0
:1031E0000C12FFCEEE2009F48FCFC8010E947A0D99
:1031F000F82E882309F488CF86E0F801ABEAB1E025
:1032000001900D928A95E1F78091AB019091AC010C
:103210000E946E0D0E944117E4CE81E08E25FBCE08
:103220001F93CF93DF93CDB7DEB767970FB6F894B0
:10323000DEBF0FBECDBF4B8B5C8B6D8B7E8B8F8BC0
:1032400061111092E8011A8A198A85E0FE017396CD
:10325000DE011D9601900D928A95E1F78091300272
:1032600082FD1CC00E948F042091E4013091E50191
:10327000821B930B8838934120F08091E60182FFF6
:103280007FC00E948F042091EA013091EB01821BE4
:10329000930B8838934110F00E946A0886E0FE0183
:1032A0003D96DE01179601900D928A95E1F7CE01C9
:1032B00007960E949717882389F016E08091E20113
:1032C0009091B101891349C067960FB6F894DEBF9B
:1032D0000FBECDBFDF91CF911F91089586E0FE0113
:1032E0003796DE01119601900D928A95E1F78A8555
:1032F0009B85892B11F38F81988589238F3FE9F274
:103300002091B10130E0C901019687709927409161
:10331000E2014817190671F40E94C80D1092B1011C
:103320001092E20186E0EBEAF1E0DF011D928A955E
:10333000E9F7C3CF96E0929FD001939FB00D11247F
:10334000AE54BE4FFE01319601900D929A95E1F771
:103350008093B1010E94DF08B0CF819FC00111248A
:103360008E549E4F0E949717882309F4ADCF809109
:10337000E20190E00196877099278093E2019ECF49
:1033800082E00E9474097DCF1F920F920FB60F92B8
:1033900011242F933F934F935F936F937F938F935A
:1033A0009F93AF93BF93CF93DF93EF93FF93D0910E
:1033B000E900DF708091EC00C82FC17080FDC0E88B
:1033C0001092E9008091F000877F8093F00078945C
:1033D0000E94DD0D1092E9008091F00088608093DA
:1033E000F000CD2BCF70C093E900FF91EF91DF91FA
:1033F000CF91BF91AF919F918F917F916F915F918D
:103400004F913F912F910F900FBE0F901F901895E5
:103410001F920F920FB60F9211242F933F934F9349
:103420005F936F937F938F939F93AF93BF93EF932C
:10343000FF938091E10082FF09C08091E20082FF4A
:1034400005C08091E1008B7F8093E1008091DA00DC
:1034500080FF24C08091D80080FF20C08091DA00D6
:103460008E7F8093DA008091D90080FF9DC080E13B
:1034700089BD82E189BD09B400FEFDCF81E0809362
:10348000590280913402811109C00E94F2020E9407
:10349000BD038091E20084608093E2008091E100AE
:1034A00080FF17C08091E20080FF13C08091E2008E
:1034B0008E7F8093E2008091E20080618093E20041
:1034C0008091D80080628093D80019BC85E08093F9
:1034D00059028091E10084FF2BC08091E20084FFBB
:1034E00027C080E189BD82E189BD89B5982F91709F
:1034F00080FFFBCF8091D8008F7D8093D800809192
:10350000E1008F7E8093E1008091E2008F7E8093C6
:10351000E2008091E20081608093E20080915A0293
:10352000882309F447C084E08093590280915902AE
:103530008091E10083FF27C08091E20083FF23C0D8
:103540008091E100877F8093E10082E080935902BF
:1035500010925A028091E1008E7F8093E100809169
:10356000E2008E7F8093E2008091E2008061809390
:10357000E20042E060E080E00E948B038091F00076
:1035800088608093F000FF91EF91BF91AF919F9180
:103590008F917F916F915F914F913F912F910F90FC
:1035A0000FBE0F901F90189519BC109259021092DF
:1035B000340274CF8091E30087FD93E09093590229
:1035C000B5CF78941F921FB61F9211248F939F93AB
:1035D000AF93BF9380912B0290912C02A0912D026A
:1035E000B0912E020196A11DB11D80932B029093E4
:1035F0002C02A0932D02B0932E02BF91AF919F9108
:103600008F911F901FBE1F9018951F921FB61F927B
:1036100011248F939F93AF93BF9380912A028111BE
:1036200013C080912B0290912C02A0912D02B09199
:103630002E024196A11DB11D80932B0290932C0266
:10364000A0932D02B0932E02BF91AF919F918F91C5
:103650001F901FBE1F901895CDB7DEB7AA970FB663
:10366000F894DEBF0FBECDBF84B7877F84BF0FB68F
:10367000F894A89580916000886180936000109212
:1036800060000FBE80E890E00FB6F8948093610070
:10369000909361000FBE85B7806885BF85B780684D
:1036A00085BF86E896E090936501809364010E944F
:1036B000F2020E94BD038091E20084608093E200E8
:1036C0007894809159028823A1F01091E9001F702D
:1036D0009091EC00892F817090FD80E8182B10925A
:1036E000E9008091E80083FD0E94DD0D1F701093BA
:1036F000E90082E084BD93E095BD9AEF97BD809389
:103700006E000E94A10D811102C00E94D70C0EE331
:1037100011E0B4E4EB2EB1E0FB2ED8018D918D01C8
:103720008F3F11F00E948806E016F106B1F704E41D
:1037300011E0A4E5EA2EA1E0FA2EF80181918F01B3
:103740008F3F11F00E948806E016F106B1F78CE079
:10375000EBE0F2E0DF01282F1D922A95E9F7E1EF77
:10376000F1E0DF011D928A95E9F790E080E00E9488
:10377000681F8A3E9E4F21F40E94A10D811102C054
:103780000E94A21182E090E00E94601F8093FE01DF
:103790000E94BA0D9093300280932F020E94A610CF
:1037A000EFEFF6E721E0E150F0402040E1F700C004
:1037B00000000E94A61080910B0280FF08C06FEFEE
:1037C0007FEF90E080E00E948C1F0E94010B83E05D
:1037D00090E00E94601F0E94B10980E091E0909308
:1037E00027028093260268E1862E912C70E4672ED2
:1037F000E7E1AE2EE2E0BE2EF0E17F2E809159028D
:1038000012E1853009F47EC10E94A610882359F088
:103810008FB7F89440912B0250912C0260912D02A9
:1038200070912E028FBF5BE0E52E52E0F52EEFEF98
:10383000F1E0D70110E000E0702F8D919D91219172
:1038400031912817390709F46DC12827392760E01D
:10385000CC24C394D12CA9014C215D21452B09F422
:103860005BC169A37AA39C012C213D2191E0232B0C
:1038700009F490E09BA30E948F048160782F9DA3A0
:103880008CA349A15AA16BA18DA10E941019000F10
:10389000111FF801E150FE4F80819181C826D92681
:1038A000D182C08286E0EEE1F2E0DE011196019065
:1038B0000D928A95E1F7D0902002C09021021091DC
:1038C00022020091230210922002109221021092F3
:1038D0002202109223028D2D8C2909F448C0809178
:1038E0001C0290911D020E9480049C01909118027C
:1038F000992309F4ABC223333105C8F19F3F19F076
:103900009F5F90931802DD2059F00E94FE059FEF03
:103910001D140CF491E0899F802D112480932002C6
:10392000CC2059F00E94FE059FEF1C140CF491E08E
:10393000899F802D1124809321023091200233230E
:10394000B1F020912102222391F045EB3403C00114
:103950001124992309F4FDC09093200245EB240320
:1039600090011124332309F4F8C030932102812FF0
:10397000802B09F448C080911A0290911B020E948A
:1039800080049C0190911702992309F45AC22536AC
:103990003105C8F19F3F19F09F5F909317021123E3
:1039A00059F00E94DC059FEF11160CF491E0899FFD
:1039B000802D112480932202002359F00E94DC05FF
:1039C0009FEF10160CF491E0899F802D11248093B5
:1039D0002302309122023323B1F0209123022223CB
:1039E00091F045EB3403C0011124992309F4B9C0C7
:1039F0009093220245EB240390011124332309F410
:103A0000B4C0309323028091200290912102892B2F
:103A100090912202892B90912302892B11F00E9410
:103A2000320586E0FE013196AEE1B2E001900D92E2
:103A30008A95E1F70E9426059091FD01891721F0F2
:103A40000E9426058093FD0180915902843009F07F
:103A5000D5CE83E08093E9008091E80082FFCECE4E
:103A60008091E80090E085FF06C00E941103882342
:103A700009F47FC091E08091E8008B778093E800A3
:103A8000992309F4BBCEE981E150E33108F0F2C09B
:103A9000F0E0EB52F04E0C943F1F809159028430BD
:103AA00009F110922A020FB6F894A895809260004E
:103AB0000FBE6092600083B7817F846083BF83B74D
:103AC000816083BF7894889583B78E7F83BF0FB65C
:103AD000F894A895809160008861809360001092AE
:103AE00060000FBE80915802882361F00E94A610EA
:103AF000EBE0F2E081919191892B09F083C1AE1640
:103B0000BF06C1F780915902853009F4C6CF0E94E3
:103B1000C80D0E94260578CE6F5FCC0CDD1C60318D
:103B200009F099CE0F5F1F4F0630110509F084CEC2
:103B30008FEF8EA38FA318A60E948F048160782F29
:103B40009AA789A74EA15FA168A58AA50E9410190E
:103B5000A9CE81E08093200201CF81E080932102F1
:103B600006CF81E08093220245CF81E0809323023B
:103B70004ACF80E2C82ED12C8E010F5F1F4F80915B
:103B8000E80085FD0AC08091E8008B778093E8000B
:103B90000E941103882399F36DCF8091F100D80121
:103BA0008D938D01B1E0CB1AD10849F763CF1A820A
:103BB00089E08B831AC08A81823009F439C183304D
:103BC000D9F1813009F056C02FB7F89460912B02DB
:103BD00070912C0280912D0290912E022FBF0E9495
:103BE000451F6B837C838D839E8380915902843033
:103BF00009F004CE1091E9001F709091EC00892F1C
:103C0000817090FD80E8182B82E08093E90080911C
:103C1000E80080FF0DC050E040E060E270E0CE01BF
:103C200001960E9442038091E8008E778093E8001D
:103C30001F701093E900E2CDFE013196D7018C91FF
:103C400011969C91B2E0EB0EF11C92838383329625
:103C5000AE14BF0499F7C9CF8A81823059F46B81C1
:103C60007C818D819E810E94451F86E290E00E94AA
:103C70006E1FBBCF8FEF8983B8CF4C816B818A8158
:103C80000E94030D9827892798279E838D83ADCFA7
:103C90002D813E813227232732274C816B818A81F7
:103CA0000E945E0CA2CF0E94870C9FCF7A829DCF8C
:103CB00081E08A8389E97DCF0C8110E00D31110507
:103CC00008F093CFEA80FB80FE24EF24FE24FE015F
:103CD00031966F010E0F1F1FC70189599D4F0C159B
:103CE0001D0509F482CFA9E9EA16A1E0FA0658F405
:103CF0000E94601FF6018483BFEFEB1AFB0AEFEF0F
:103D0000CE1ADE0AE9CFD60114961C92F5CFEC80CC
:103D1000F12CFDE1EF16F10408F067CF0A811B8159
:103D2000102701271027CE0101966C01E00EF11E2D
:103D3000C80189599D4FE016F10609F456CF09399B
:103D4000A1E01A0720F4F60164810E946E1FFFEFC4
:103D5000CF1ADF0A0F5F1F4FEBCF0E944E0C45CFEB
:103D600083E08A8342CF0C8110E00D31110508F009
:103D70003CCFEA80FB80FE24EF24FE24CE01019696
:103D80006C01080F191FC7018796C016D10609F4E8
:103D90002CCFB0E4EB16B2E0FB0658F40E94601F93
:103DA000F6018483BFEFEB1AFB0AEFEFCE1ADE0AAF
:103DB000EACFD60114961C92F5CFEC80F12CFDE1F0
:103DC000EF16F10408F011CF0A811B81102701279B
:103DD0001027CE0101966C01E00EF11EC8018796F6
:103DE0000E151F0509F401CF0034A2E01A0720F4D4
:103DF000F60164810E946E1FFFEFCF1ADF0A0F5F8A
:103E00001F4FECCF79BC19BD09B400FEFDCF8091E6
:103E1000D8008F7D8093D8008091E00082608093ED
:103E2000E0008091E00081FDFCCF0E94C80D6ACEC9
:103E300086E290E00E94601F1B821C821D828E839E
:103E4000D4CE2D32314008F0A7CDDDCD2D3231401A
:103E500008F056CD8CCD97FB072E16F4009407D0B2
:103E600077FD09D00E944C1F07FC05D03EF49095C9
:103E700081959F4F0895709561957F4F0895EE0F3E
:103E8000FF1F0590F491E02D099469279627692773
:103E90007827872778270895AA1BBB1B51E107C005
:103EA000AA1FBB1FA617B70710F0A61BB70B881FCA
:103EB000991F5A95A9F780959095BC01CD01089559
:103EC000F999FECF92BD81BDF89A992780B50895E2
:103ED000A8E1B0E042E050E00C94941F262FF9993D
:103EE000FECF92BD81BDF89A019700B4021639F059
:103EF0001FBA20BD0FB6F894FA9AF99A0FBE08952A
:103F00000396272F0E946F1F0E946E1F252F0E946D
:103F10006F1F242F0C946F1F0196272F0E946F1F75
:103F20000C946E1FDC01CB01FC01F999FECF06C099
:103F3000F2BDE1BDF89A319600B40D924150504067
:103F4000B8F70895FB01DC0104C08D910190801940
:103F500021F441505040C8F7881B990B0895F894FC
:103F6000FFCF8C0D8C0D950D950D970D950D950D25
:103F7000950D8C0D8C0D9C0D950D950D9C0DC30E06
:103F8000EB0E8E10EB0E8E101E0F3F0F8E103D109D
:103F90004A106D146D14A614A6145A157415D41471
:103FA000D4147F15EA15F915F915D71DDB1D2C1E44
:103FB0003D1E481E531E3A1E3A1E3A1E3A1E3A1E17
:103FC000561E581E5C1E871EAD1EB01EB31EDD1E83
:103FD0007D04C10AA00A9C0A980A7C04018182839C
:103FE000E200E900EA00B500B600B700CD008301A9
:103FF000CC008A01920194012102230224022502AD
:10400000260227022A02B300B4006F0070009067F6
:104010009593929166363534F7F6F5F4F1373332ED
:104020003130F0974022BC8A016801AC00CC04E535
:04403000040505007E
:00000001FF
