:100000000C944A040C9491040C9491040C94910463
:100010000C9491040C9491040C9491040C9491040C
:100020000C9491040C9491040C9434290C94F028B1
:100030000C94312A0C9491040C9491040C94910426
:100040000C9491040C9491040C9491040C949104DC
:100050000C9491040C940D2A0C9491040C9491042A
:100060000C9491040C9491040C9491040C949104BC
:100070000C9491040C9491040C9491040C949104AC
:100080000C9491040C9491040C9491040C9491049C
:100090000C9491040C9491040C9491040C9491048C
:1000A0000C9491040C9491040C94910405010902A0
:1000B000A10185020901A100050919012905150001
:1000C00025019505750181029501750381010501E1
:1000D000093009311581257F950275088106093897
:1000E0001581257F950175088106050C0A380215D2
:1000F00081257F950175088106C0C005010980A191
:1001000001850319012AB700150126B7009501756D
:10011000108100C0050C0901A101850419012AA064
:1001200002150126A002950175108100C005010984
:1001300006A1018506050719E029E71500250195A7
:1001400008750181020507190029EF1500250195A1
:10015000F0750181020508190129059505750191C0
:1001600002950175039101C00660FF0961A10109B3
:1001700062150026FF0095207508810209631500AD
:1001800026FF00952075089102C005010906A1010E
:10019000050719E029E71500250195087501810279
:1001A0009501750881010507190029FF150026FF33
:1001B0000095067508810005081901290595057542
:1001C000019102950175039101C00000000000003B
:1001D000000000000000000000000000000000001F
:1001E00000000000000000000000000000007E0F82
:1001F00000D4FFFFFFC700000078000000000000EF
:1002000000002A2B28000000000000000000000071
:10021000000000000029000000002C1E34202122D4
:1002200024342627252E362D3738271E1F2021223D
:10023000232425263333362E37381F0405060708B6
:10024000090A0B0C0D0E0F101112131415161718A6
:10025000191A1B1C1D2F3130232D350405060708E4
:10026000090A0B0C0D0E0F10111213141516171886
:10027000191A1B1C1D2F3130354CFD377A585A0086
:100280000004E6D6B4460200210116000000742FD7
:10029000E5A3E008CD024A5D003D8889C65436C317
:1002A000174FE4E6BF66179C2B86D09F666FE9E088
:1002B0007495C9FEDB22B6DFD52EEFCB4D8B36749D
:1002C000CC2ACB587D76C45B03A54E3FD80F085E81
:1002D0009D73F7A60F7A54FF1DF2A8F12F03FEC0FD
:1002E0004ECCF5B62AE69FC918AAFE589F13E040E7
:1002F0000FD02DEFD313F1F16ED637A387194984B0
:100300005BBCA8B5C1134039EC08AB8474A751CBD2
:100310004890911760ED6202365661E13E2A928163
:10032000522AFEB731C16FBE17FA4F2007876356B6
:10033000A6E9E027D9B8C3676AA4AD6BA93C7A6C7B
:100340007ADF543E89F4AEDE93530CB9BA24B63842
:100350000FA144FEA6E2BC381A6B611170DF993B15
:100360000C64DF1A01EE33CE37CB0FDAB56A6814AE
:10037000D0C2F6FFD77BC7A8440B4F5AA64FB9F49B
:10038000045ADA5E872E71217131B772FD0E64D680
:1003900063A97A0097369D54BECC55300FB3345ABA
:1003A0000303893FD168A85C4100860CF28FE3BE4D
:1003B0001111A88A17400CA4D56610FDD04FA7369E
:1003C000338216828906D73369158D7BD11D1A9920
:1003D000E6B29E10F45E3DC3710F0D5F2F8C1E3F81
:1003E000DC90B5101E377FD8BB33C78F9EE8A9C4F9
:1003F0002B5DB89A89C54A1AA0CD08136CE8E91C90
:10040000B6FA744DDF91970C8D0DF89F8EC08393D3
:100410002A26E2B692FD42C91D044F1539FC8B3CD9
:100420005783AE85BEB8EE9D912BD8EB05F939A761
:1004300021BF2A18F39C658B5FD2B6E1549BFCA6C2
:10044000BC833B5F7A024E4D7495503112EF30857C
:10045000AE55D133CAEFD47F7D2802A2993718CE8A
:1004600048C5E2B41434812A9DFB6491F95F687732
:100470003B0B4DCF638DC110D7BFD167F5DEDB16C7
:1004800031105C26F0E252AB3E66CB8AA0B2DBF9BB
:1004900014D523BD0A62E0AFC701E4A633D303C677
:1004A000E00D963382796C71CEC472DD5F431EB06D
:1004B0003DE0EBEFA8AFA6208B2D875365FF21B75A
:1004C0009C8467097E3C948A3BFAB2878243388CCD
:1004D000A669A08E1DC41B95580B6F7AF296BF5B60
:1004E000BD9900000000B159770996D2D0FB0001F8
:1004F000E604CE110000F0DABE7DB1C467FB020055
:1005000000000004595A29003A003B003C003D001D
:100510003E003F0040004100000042004300440014
:1005200045004C00460035001E001F002000210041
:100530002200230024002500260027002D002E0085
:1005400000002A004A002B0014001A0008001500C1
:1005500017001C0018000C00120013002F003000C0
:10056000000031004D0039000400160007000900AA
:100570000A000B000D000E000F00330034000000D5
:10058000320028004B00E10031001D001B00060076
:100590001900050011001000360037003800000077
:1005A000E50052004E00E000E300E2000000000021
:1005B00000002C00000000000000E600E700E4005E
:1005C000500051004F000100010001000100010036
:1005D0000100010001000100000001000100010014
:1005E0000100010001000100010001000100010003
:1005F00001000100010001000100010001000100F3
:1006000001000100010001000100010001000100E2
:1006100001000100010001000100010001000100D2
:1006200000000100010001000100010001000100C3
:1006300001000100010001000100010001000000B3
:1006400001000100010001000100010001000100A2
:100650000100010001000100010001000100000093
:100660000100010001000100010001000000000084
:100670000000010000000000000001000100010076
:100680000100010001000100010001000100010062
:100690000100010001000100000001000100010053
:1006A0000100010001000100010001000100010042
:1006B0000100010001000100010001000100010032
:1006C0000100010001000100010001000100010022
:1006D0000100010001000100010001000100010012
:1006E0000000010001000100010001000100010003
:1006F00001000100010001000100010001000000F3
:1007000001000100010001000100010001000100E1
:1007100001000100010001000100010001000000D2
:1007200001000100010001000100010000000000C3
:1007300000000100000000000000010001000100B5
:1007400001000100010001000100A50300000200FA
:100750000200A103000003000100A6030000040042
:1007600002008B03420705000100A70300000600FA
:1007700002008D03000007000200A3030000080030
:100780000100A8030000090002008F031D070A00F2
:10079000020091031D070B00020093031D070C00CC
:1007A000020095031D070D00020097031D070E00B0
:1007B000020099031D070F0002009B031D07100094
:1007C00002009D031D07110002009F031D07120078
:1007D0000200A903000013000200AB03000009029D
:1007E0005B00030100A0FA090400000103010100FD
:1007F0000921110100012240000705810308000AB8
:100800000904010002030000000921110100012276
:1008100022000705820320000107050303200001D1
:100820000904020001030000000921110100012256
:10083000BC000705840320000A120100020000002A
:1008400008C02175070100010203011C037600693D
:100850000061006C003A006600360034006300322C
:100860000062003300630000001803540068006554
:100870000020004D0061006E0074006100370035FB
:100880000000000A035200690063006F00000004CA
:100890000309040011241FBECFEFDAE0DEBFCDBF95
:1008A00004B603FE27C08091A3049091A404A091F4
:1008B000A504B091A6048730904BA740B04BD1F46B
:1008C0001092A3041092A4041092A5041092A604FE
:1008D00014BE84B7877F84BF0FB6F894A895809123
:1008E0006000886180936000109260000FBEE0E0BD
:1008F000F8E3099511E0A0E0B1E0ECE7F2E602C010
:1009000005900D92AC37B107D9F724E0ACE7B1E020
:1009100001C01D92A33AB207E1F70E94582A0C9435
:100920000A310C940000E8EDF0E080818E7F808336
:100930001092E2001092DA001092E100A0EEB0E016
:100940008C9181608C9380818F77808319BCA7ED17
:10095000B0E08C918E7F8C9380818F7E808310920B
:10096000720408952091E4003091E50095E6A90114
:100970002091EC00822F817020FF06C08091E8005A
:1009800080FF06C080E008952091E80022FD1AC093
:1009900080919704882389F0853089F08091EB005D
:1009A00085FD0FC02091E4003091E5004217530708
:1009B000F9F29150E1F684E0089582E0089583E031
:1009C000089581E00895EF92FF920F931F93CF93C4
:1009D0007C018B010E94B204C82F811117C0809145
:1009E000E80085FD0BC08091E8008E778093E800D9
:1009F0000E94B204882399F3C82F08C0F70181919F
:100A00007F018093F1000150110949F78C2FCF919C
:100A10001F910F91FF90EF9008958091990487FFA7
:100A200013C08091E80082FF06C08091E8008B77B8
:100A30008093E80004C0809197048111F2CF08955B
:100A4000809197048823D9F38091E80080FFF8CF44
:100A50008091E8008E77ECCF982F9093E900242FB7
:100A6000762F50E0891731F07091EC002091ED0065
:100A70005091F00021FD07C09F5F973071F7809380
:100A8000E90081E008953091EB003E7F3093EB0068
:100A90003091ED003D7F3093ED003091EB003160FF
:100AA0003093EB007093EC002093ED005093F00036
:100AB0002091EE0027FDE0CF80E00895CF92DF92F5
:100AC000EF92FF920F931F93CF93DF93C8EDD0E087
:100AD00088818F7E8883E7EDF0E08081816080836C
:100AE00084E082BF81E08093720488818E7F888356
:100AF00002EE10E0F80110821092DA0081EEC82EAA
:100B0000D12CF601108288818F7788838881806854
:100B1000888388818F7D888319BC109297041092F6
:100B20009804109296041092950490EEE92EF12C00
:100B3000F70180818B7F808388818160888342E098
:100B400060E080E00E942C05F60180818E7F80832A
:100B5000F801808181608083808188608083F701D3
:100B600080818E7F8083888180618883DF91CF91AF
:100B70001F910F91FF90EF90DF90CF900895FC01AF
:100B800080919F049091A00486179707A0F06115AB
:100B9000710529F49091E8009E779093E80090E029
:100BA0006115710551F4911108C08091E80082FF30
:100BB00034C080E00895BC01F2CF8091970488236F
:100BC000C1F18530C1F18091E80083FD30C0809192
:100BD000E80082FDEACF8091E80080FFE1CF8091BC
:100BE000F3002091F200382F6115710519F02830BB
:100BF000310558F091E02830310509F090E020915E
:100C0000E8002E772093E800CBCF81918093F1000C
:100C1000615071092F5F3F4FE7CF80919704882380
:100C200041F0853041F08091E80083FFBECF81E044
:100C3000089582E0089583E00895089580917404F2
:100C400008959C014FB7F8948091690490916A04CB
:100C5000A0916B04B0916C044FBF821B930B08955D
:100C60002FB7F8948091690490916A04A0916B0465
:100C7000B0916C042FBF089520911C012223C9F06C
:100C800020916D0427FF15C0E62FE695E695E695C1
:100C9000EE31D8F4E80FF92FF11D677021E030E054
:100CA00001C0220F6A95EAF72095828128232283CA
:100CB0000895FC01329608962191621303C0DF016A
:100CC00011971C92E817F907B9F7089520911C01B4
:100CD0002223C1F020916D0427FF14C0E62FE69572
:100CE000E695E695EE31F8F4E80FF92FF11D6770FF
:100CF00021E030E001C0220F6A95EAF78281822B61
:100D000082830895FC0132962FEF30E04191641701
:100D100051F02F3F19F4411101C0232F3F5F3630AE
:100D2000A9F72F3F09F40895820F911D27FD9A9589
:100D3000FC016283089520916604309167042817AE
:100D4000390771F09093670480936604E09164041E
:100D5000F0916504309721F00084F185E02D09942D
:100D6000089520916204309163042817390771F0C7
:100D70009093630480936204E0916404F0916504AD
:100D8000309721F00680F781E02D09940895E091D5
:100D90006404F0916504309721F00190F081E02D1A
:100DA000099480E00895452B39F0682381E06F3F76
:100DB00009F080E08170089581E0FCCFDC01609152
:100DC000870380918803962F891301C00895292FE6
:100DD00030E0F901EE0FFF1FE158FC4F40815181D7
:100DE0004A175B07A1F487E08A9FA0018B9F500DF3
:100DF0001124495B5C4F81E0FA0184839613E6CFAE
:100E00002F5F3F4F237033272093870308952F5F71
:100E10003F4F922F9370D8CF1092E4021092E302CA
:100E2000E7E4F3E08581811102C0148216823796CF
:100E300083E0EF37F807B1F70895EBE8F3E084813A
:100E400095812AE030E0B9010E9455306093170186
:100E50008681809316018285809315018485809315
:100E6000140186859785B9010E945530609313015E
:100E700080898093120182898093110184898093F3
:100E80001001089580918B0390918C039093190128
:100E90008093180108950E9430069C01909154029D
:100EA00080915502982B21F03093510220935002EB
:100EB0009091560280915702982B21F030934F0267
:100EC00020934E02E0916404F0916504309749F05C
:100ED00082E0809352020480F581E02D82E592E069
:100EE0000994089590915402803F59F480915502DD
:100EF00087FF0DC01092550291110BC010924C0249
:100F000008C0813F81F48091550218169CF3992303
:100F100081F08091560290915702892B09F064C0AC
:100F200010924B020895823F49F497FFF0CF109240
:100F30005402809155028111ECCFE0CF833F19F428
:100F40001916ACF3E4CF20915602893F29F412160A
:100F5000F4F610925602DBCF8A3F19F427FFD7CF61
:100F6000F8CF209157028B3F29F427FFD0CF109262
:100F70005702CDCF8C3F19F41216CCF3C8CF843F63
:100F800031F4809153028E7F80935302C0CF853F0E
:100F900021F4809153028D7FF7CF863F21F4809119
:100FA00053028B7FF1CF873F21F480915302877FDB
:100FB000EBCF883F21F4809153028F7EE5CF8D3FA8
:100FC00031F480914D028E7F80934D02A0CF8E3FF1
:100FD00021F480914D028D7FF7CF8F3F09F097CF9D
:100FE00080914D028B7FF0CF089580914D0280FF5C
:100FF0000CC06091110170E07595679575956795C6
:101000006115710549F1862F089581FF06C0609131
:10101000110170E075956795F3CF6091110182FD24
:101020000BC090914B029923A1F060911001809127
:101030001101961738F0682F70E06038710500F3E1
:101040008FE70895899FC001112470E00E946930E4
:10105000F4CF61E070E0D7CF81E0089580914D0238
:10106000609193037091940380FF16C02091150145
:10107000269FC001279F900D1124BC01769567958E
:10108000769567956038710508F043C06115710564
:1010900009F441C0862F089581FF0BC020911501EE
:1010A000269FC001279F900D1124BC01769567955E
:1010B000E9CF82FF09C0809115019B01829FB00199
:1010C000839F700D1124DECF20914C022223D1F298
:1010D0009091140180911501482F50E0291748F094
:1010E000CB01849FB001859F700D949F700D1124DA
:1010F000C9CF289F90011124269FA001279F500D42
:10110000369F500D1124692F70E0CA010E9455309E
:10111000B9CF8FE7089581E00895803F31F40E94B0
:101120002E088195809355020895813F19F40E94FD
:101130002E08F8CF823F31F40E942E0881958093CB
:1011400054020895833F19F40E942E08F8CF893F76
:1011500029F40E94F5078093560208958A3F21F4EE
:101160000E94F5078195F7CF8B3F31F40E94F50778
:1011700081958093570208958C3F19F40E94F507DA
:10118000F8CF843F31F48091530281608093530201
:101190000895853F21F4809153028260F7CF863F06
:1011A00021F4809153028460F1CF873F21F4809134
:1011B00053028860EBCF883F21F480915302806115
:1011C000E5CF8D3F31F480914D02816080934D02D7
:1011D00008958E3F21F480914D028260F7CF8F3FBA
:1011E000B9F780914D028460F1CF80E00895F894C2
:1011F000E82FE295EF70F0E031A1282F2F7081E009
:1012000090E001C0880F2A95EAF7982F90959323D4
:1012100091A392A1892B82A37894089590916D0453
:1012200092FF06C0282F28712830F9F4877F846048
:1012300093FF06C0282F28712831F1F4877E84613E
:1012400020916E0420FF06C0382F38713830D9F451
:10125000877F816021FF06C0282F28712831D1F4B3
:10126000877E816194FD877E0895282F2471243024
:10127000F9F68B7F8860DCCF282F2471243101F7A9
:101280008B7E8861DDCF382F3171313019F78E7F39
:101290008860E0CF282F2171213121F78E7E88616F
:1012A000E1CFCF93DF93EC0182389105A9F1D8F516
:1012B0008133910509F496C048F58932910509F406
:1012C0008AC08A9709F495C0C11521E5D20708F0B4
:1012D000BCC0C11530E5D30708F014C1C83ED10524
:1012E00008F09CC0C03ED10560F5C83AD10508F0B1
:1012F00087C0C53AD10508F0FDC0C130D10509F15C
:101300002097F9F0C430D105E0F440C08533910551
:1013100009F45AC0C997C1F680916D04837089F0B1
:10132000C0EED0E00EC0833E910599F170F4803E8E
:10133000910501F1823E910539F680916D0482FD9F
:1013400021C0CE01DF91CF910895863E910561F1D4
:10135000873E910571F1843E910509F0B5CF8091EA
:101360006E0481FFEECF80916D04C7EED0E084FD66
:101370000DC0E7CF80916D0480FD12C190916E0485
:1013800090FFDFCFC3EED0E084FFDBCFD0E0C0E042
:10139000D8CF80916D0482FD06C190916E0490FDBE
:1013A000BFCF84FFCECFF2CF80916D0483FDDDCF20
:1013B000C8CF80916D0483FDF9C090916E0491FFB8
:1013C000F0CFC4EED0E0BDCF80916D0485FFB9CFE2
:1013D000C9E2D0E0B6CF80916D0485FFB2CFC5E3FE
:1013E000D0E0AFCF80916D0486FFABCFCAE2D0E0F2
:1013F000A8CF80916D0486FFA4CFC1E3D0E0A1CF38
:10140000CF3BD10518F6C85AD0E0CC0FDD1FC85D20
:10141000DE4F0990D881C02DD46493CFC11540E22E
:10142000D40758F4C11581E0D80708F08ACFC03F2F
:10143000D10508F4ABCFD06584CFC11590E4D907AE
:1014400008F4A4CFDF70D06A7CCFC11525E5D207A0
:1014500000F5C11534E5D30708F08AC0C11543E58E
:10146000D40708F071C0C11582E5D80708F467C039
:10147000CE018370992721E030E002C0220F331F94
:101480008A95E2F7C695C69580E2C89FE0011124CF
:1014900052C0C11599E5D907A8F4C11528E5D207AE
:1014A00008F06BC0C11536E5D30708F06FCF8C2F5D
:1014B0000E940E09C82FD0E0DC2FCC27CC27DF718B
:1014C000D0623FCFC1154AE5D40708F45BC0CE0116
:1014D00090568115904208F059CF8D2F8F710E9440
:1014E0000E0990E0982F882788279F719C012C2B4C
:1014F000E901E6CFC55AD0E0CB5DDE4FC881D0E030
:10150000D0641FCFCE01E4E096958795EA95E1F788
:1015100083702C2F26952695237040E2249F9001FE
:101520001124382B8C2F8370C1E0D0E002C0CC0F87
:10153000DD1F8A95E2F7C22BD32BDC6802CFDC2FAC
:10154000CC27C16FD06AFDCECE018370992721E0F0
:1015500030E002C0220F331F8A95E2F7C695C69588
:1015600090E2C99FE0011124C22BD32BDA68E9CEA7
:10157000DC2FCC27C46FD06AE4CEDC2FCC27C06F21
:10158000D06ADFCE8C2F8F700E940E0934E0D69582
:10159000C7953A95E1F7CF709C2FEC01D069D1CE79
:1015A000C9E3D0E0CECEC2EED0E0CBCEC6EED0E0E6
:1015B000C8CE80911602882331F010921602109244
:1015C0001502109214020895CF93C82F80916E04D3
:1015D00082FD0CC0809116028C1741F00E943006EB
:1015E0009093150280931402C0931602CF91089530
:1015F00080959091A20498239093A20408958095D9
:101600009091BE0298239093BE0208959091BE02DD
:10161000892B8093BE02089510921202109211023B
:1016200010921002089580918D0390918E03892B62
:1016300089F00E9430062091140230911502AC010D
:10164000421B530B81E020918D0330918E03421792
:10165000530708F480E0817008958091BE02909154
:10166000A204892B90911302892B80937E01809193
:101670001602882319F180918D0390918E03892B96
:1016800029F00E94130B81110E94D90A80917E01DA
:1016900090911602892B80937E0180911C018823F2
:1016A00041F180916D0487FF24C08EE1E0E8F1E014
:1016B00090E0815000F591110E94D90AE0916404F4
:1016C000F09165043097E1F080911C01882359F076
:1016D00080916D0487FF07C080917E0180937F0118
:1016E00086E080937E010280F381E02D8EE791E019
:1016F000099486E0DBCF21912223D9F29F5FD9CFD5
:101700000895EF92FF920F931F93CF93DF93EC0115
:101710008A85811134C0EB80FC8087E5F81A26E1C8
:101720002E9DC0012F9D900D1124DC01AE54BC4FA5
:101730001496ED91FC911597309731F054966D9178
:101740007C9188549C4F099586E18E9D80018F9DE8
:10175000100D11240E541C4FF80187810E94FF0ABE
:10176000F80180850E94F80A0E942D0B18821986C4
:101770001B861E821D821092B1031092B003DF916E
:10178000CF911F910F91FF90EF900895CF93DF932A
:10179000EC018989811118C081E0898B8F810E94B9
:1017A000060B8091A2049885892B8093A2040E9445
:1017B0002D0BEA81FB81309739F06C897D89CE0150
:1017C0000696DF91CF910994DF91CF910895809192
:1017D0001A01877F80931A0182E00E94F80A8091A3
:1017E0001A0184FF06C08F7E80931A0182E00E9456
:1017F000060B80911A0185FF06C08F7D80931A0128
:1018000080E20E94060B0C942D0B80910F02811137
:1018100010920F02089520910E029091CD0129138C
:1018200002C080E0089530E0F90153E0EE0FFF1FA1
:101830005A95E1F7E253FE4F5181561306C050818D
:10184000581303C05281541304C02F5F3F4F2770B9
:10185000E6CF81E0089580910E029091CD0198131A
:1018600001C008958F5F8770FACF9E3F41F1929536
:10187000907FE92FE80F9E2F9770E695E695E69505
:1018800083E0E89FF0011124EF55FE4F50E040E067
:1018900080E0219130E0092E02C0369527950A9408
:1018A000E2F721703327042E01C0220F0A94EAF7D1
:1018B000822B4F5F5F4F4330510559F7089580E009
:1018C00008959E3F61F19295907FE92FE80F8E2F4A
:1018D000877041E001C0440F8A95EAF7E695E695E6
:1018E000E69583E0E89FF0011124EF55FE4F30E0CC
:1018F00020E070E05191DF011197CB01022E02C070
:10190000969587950A94E2F78170819585278423BF
:1019100085278C932F5F3F4F2330310559F708956A
:10192000E92FE295EF70E250EE3070F4F0E0E45F02
:10193000FE4C0C947D30803F19F020F4883E20F45A
:1019400081E00895843FE1F380E00895883EC0F38C
:10195000813FD1F7F5CF93FB882780F9089590E078
:1019600080E00E94B10690E080E00E949B06109209
:10197000A204109213020E942D0B86E0E2E5F2E031
:10198000DF011D928A95E9F710924C0210924B02EA
:1019900010924D020C944B078093A1040C94AF0C51
:1019A0008091A104982F9670963019F488600C9459
:1019B000CC0C877FFCCF21E030E001C0220F8A955C
:1019C000EAF720958091A10482230C94CC0C90918D
:1019D00012028095892380931202282F277091F498
:1019E000282F082E000C330B9217130659F09091F4
:1019F0006E0492FD07C08595859585950E94DB0C48
:101A00000C940C0B089521E030E001C0220F8A9560
:101A1000EAF78091A104822B0C94CC0C90916E0477
:101A200092FD10C098E0899F90011124622B609371
:101A300012020E94030D0E943006909311028093BF
:101A4000100208950C94030D809317020C94AF0CB0
:101A5000882321F00E94F80A0C942D0B0895882306
:101A600039F09091A204982B9093A2040C942D0B22
:101A70000895882321F00E94FF0A0C942D0B0895ED
:101A8000882321F00E94060B0C942D0B08958823C7
:101A900079F19CEF980F913A38F4682F8EE791E036
:101AA0000E943C060C942D0B90E2980F983050F455
:101AB000877091E001C0990F8A95EAF7892F0E94FB
:101AC000FF0AF0CF9BE5980F933020F490E080E080
:101AD0000C94B10698E5980F973120F490E080E0DF
:101AE0000C949B06803F20F00E9472070C944B07D9
:101AF0000895CF93C82F882309F46BC08CEF8C0F07
:101B0000813AC0F580911C01882311F180916D0408
:101B100087FF1EC0EC2FE695E695E695F0E0E258CB
:101B2000FE4F828190E04C2F477021E030E002C0F0
:101B3000220F331F4A95E2F782239323892B91F0DA
:101B40006C2F8EE791E00E943C060E942D0B0AC08C
:101B5000E0E8F1E086E891E02191C21789F38E1761
:101B60009F07D1F76C2F8EE791E00E946606CF9118
:101B70000C942D0B80E28C0F883048F4C77081E004
:101B800001C0880FCA95EAF70E94060BF0CFEBE57B
:101B9000EC0FE33040F4F0E0EB5DFE4F808190E02D
:101BA000CF910C94B106E8E5EC0FE73150F4F0E08A
:101BB000EE0FFF1FE85DFE4F80819181CF910C9465
:101BC0009B06C03F30F08C2F0E948D08CF910C9463
:101BD0004B07CF9108959C013A9521153F4150F54F
:101BE000FC01EE27F170BC0166277270AC0144273E
:101BF00054709C012227387094FF0EC080E1EF2BB7
:101C000009F480E0672B09F08062452B09F08064BD
:101C1000232B89F08068089581E0EF2B09F480E0A0
:101C2000672B09F08260452B09F08460232B19F0A3
:101C30008860089580E00895CF93DF93EC010E94BF
:101C4000470DCE010E94EB0D9E01205E3109283028
:101C5000310510F0CD2B21F4DF91CF910C94390D8B
:101C6000DF91CF910C94280DCF93DF93EC010E946C
:101C7000EB0D9E01205E31092830310510F02097D0
:101C800039F40E94400D8C2FDF91CF910C94790D87
:101C90000E942F0DF8CF662329F02091A204226024
:101CA0002093A2049C013056211540E2340720F015
:101CB000305E2115304108F499270C94340E80933E
:101CC0006F04709371046093700480919704843062
:101CD000F9F48093E9008FEF9091E800815095FD31
:101CE00006C095ED9A95F1F700008111F5CF80912E
:101CF000E80085FF0DC050E040E063E070E08FE653
:101D000094E00E94E3048091E8008E778093E800DD
:101D10000895BC0184E00C945F0EBC0183E00C9438
:101D20005F0E9C0184E08093E9009FEF8091E800C2
:101D3000915085FD06C085ED8A95F1F7000091115F
:101D4000F5CF8091E80085FF0CC050E040E066E0F0
:101D500070E0C9010E94E3048091E8008E778093CF
:101D6000E8000895CF93DF93EC0180911C01882354
:101D7000B1F180916D0487FF32C060E284E080930E
:101D8000E9008FEF9091E800815095FD06C095ED38
:101D90009A95F1F700008111F5CF8091E80085FF59
:101DA0001BC080911C0170E050E040E0811104C034
:101DB00050E040E068E070E0CE010E94E3048091D2
:101DC000E8008E778093E80080E2FE01A5E7B4E0AA
:101DD00001900D928A95E1F7DF91CF91089568E027
:101DE00081E0CDCF81E08093E00080E28093D80055
:101DF0001092C9008FE19EE40197F1F700C0000046
:101E000087E090EBDC018093A3049093A404A0935B
:101E1000A504B093A60488E19CE00FB6F894A895B9
:101E2000809360000FBE90936000FFCF019708F48D
:101E30000895EFE9FFE03197F1F700C00000F6CF19
:101E4000DF92EF92FF920F931F93CF93DF937C016A
:101E50008B01D42E80911A0182FF8CC0C091E102C7
:101E6000D091E202CE15DF0521F0E114F10409F072
:101E700081C080911A018B7F80931A0181FD73C00C
:101E80008091DF029091E002A801481B590B81E08C
:101E900020911801309119014217530708F480E08E
:101EA0008170F82E80911A01F0FA81F980931A015D
:101EB000FE0183E0F695E7958A95E1F7EE71FF273D
:101EC000E154FD4F20813181AE014F70552781E0F3
:101ED00090E002C0880F991F4A95E2F7FF2009F4AD
:101EE00044C0822B932B918380838091BE0281FF1B
:101EF00008C080911A01806180931A0182E00E94DB
:101F0000FF0A8091BE0285FF08C080911A0180629D
:101F100080931A0180E20E94FF0A6F2DCE010E9479
:101F20004B0EDD2031F08091A60385FF02C086FFB5
:101F30003BC08091A9039091AA030E94160F809143
:101F4000E1029091E2029C013056211540E23407F3
:101F500020F0305E2115304108F499270E941C0EB4
:101F60000E94E70B1DC081E09BCF80959095822356
:101F70009323B9CFC701992797013056211540E225
:101F8000340728F0305E2115304108F0C7010E9467
:101F90001C0E8091E1029091E2028E159F0501F3E3
:101FA0001093E0020093DF02DF91CF911F910F9118
:101FB000FF90EF90DF9008951F93CF93DF93182F3A
:101FC000C091AB03D091AC03893321F0C091A90338
:101FD000D091AA03812F0E94790D209731F4812F8F
:101FE000DF91CF911F910C94470D8FE99FE00197EE
:101FF000F1F700C000002197F0CF0F931F93CF930C
:10200000DF93C42FD22FFC0182818823A1F040935B
:10201000AF030E9430069093AE038093AD03C77068
:1020200081E001C0880FCA95EAF7DF91CF911F9137
:102030000F910C94400D1091AF03141339C080918F
:10204000AD039091AE030E9421062091A30330912D
:10205000A4038217930760F5C0E2CD0F1D17B9F0F6
:1020600080E2810F883040F4177081E001C0880F52
:102070001A95EAF70E94390DC83048F481E09D2F87
:10208000977001C0880F9A95EAF70E94400D802F43
:102090000E94DC0FC83098F4D77081E001C0880F2F
:1020A000DA95EAF7DF91CF911F910F910C94390DDA
:1020B000C77081E001C0880FCA95EAF7F3CFDF91BE
:1020C000CF911F910F910895AF92BF92CF92DF925F
:1020D000EF92FF920F931F93CF93DF93EC018AE06F
:1020E000A82E2881222309F48CC02130C9F59981BA
:1020F0008A81913021F422960E94DC0F05C0923033
:1021000029F422960E94790D2196EBCF933021F489
:1021100022960E94470DF8CF943011F02196F4CF0B
:10212000229630E020E0AE014F5F5F4F8053990B65
:102130008A30910550F02150310930F38FE99FE04A
:102140000197F1F700C00000F6CFA29EB001A39E58
:10215000700D11249C01260F371F8981EA01E3CFFE
:10216000E22FF0E0E650FE4FB490822F86958695E0
:10217000869590E0FC01E651FE4FE4902770F12C2B
:10218000022E02C0F594E7940A94E2F731E0E322CC
:10219000FF24FC01E652FE4FC490D12C022E02C057
:1021A000D594C7940A94E2F731E0C322DD24FC0100
:1021B000E653FE4F049110E002C0159507952A954D
:1021C000E2F701701127E114F10419F081EE0E9489
:1021D000790DC114D10419F086EE0E94790D8B2D72
:1021E0000E94DC0FCD2819F086EE0E94470DEF28E3
:1021F00019F081EE0E94470D012B09F485CF8CE286
:102200007BCFDF91CF911F910F91FF90EF90DF90E7
:10221000CF90BF90AF9008950F931F93CF93DF930C
:102220000BE813E0C7E6D2E0CE010E94C030F8010F
:1022300081938F012196C938F2E0DF07A9F7CCE43A
:10224000D7E0FE0185919491009711F0FC0109956A
:102250002896F7E0C43EDF07A1F7DF91CF911F91E9
:102260000F9108950F931F93CF93DF93833030F531
:10227000663020F5403110F520E2629F8001112484
:1022800050E0440F551F040F151F30EC839F000DC5
:10229000111D1124C80187960E94C030C82FD0E0BC
:1022A000DC2FCC27C80188960E94C0309E01282BC5
:1022B000C901DF91CF911F910F91089590E080E0C7
:1022C000F8CF462F2091BC023091BD02232B91F410
:1022D0007E3F39F46E3F71F48091BA029091BB0257
:1022E0000895833038F4763028F4603118F4672F7D
:1022F0000C94321190E080E00895CF92DF92FF922B
:102300000F931F93CF93DF936C010091A1048091F1
:102310001702082BC7E0D0E010E0FC2EC8010C2EFD
:1023200002C0959587950A94E2F780FD0CC021972D
:10233000A0F7F12C8F2DDF91CF911F910F91FF907E
:10234000DF90CF900895B6018C2F0E9461110E94FA
:102350005109019761F3EECFCF93DF93EC010E9417
:102360007D11BE010E946111DF91CF910C94510942
:10237000FC0186819781009721F00E9451090C94FD
:10238000900C808191810E94AC11F9CF1F93CF9363
:10239000DF9300D000D00F92CDB7DEB749835A83C8
:1023A00089819A816623B9F02223A9F00E947D11C8
:1023B000182F682F89819A810E94610C69817A8126
:1023C000812F0F900F900F900F900F90DF91CF9172
:1023D0001F910C9461110E94350C182FEFCFFC0156
:1023E000262F86819781009739F44081518162813F
:1023F000738184810C94C611089583E290E00E9459
:10240000C030853C89F484E290E00E94C030863080
:1024100059F485E290E00E94C03091E0883509F0DF
:1024200090E0892F8170089580E0FCCFCF9384E005
:1024300090E00E94C030C82F82E290E00E94C0303D
:10244000982F8C2FCF9108950F931F93CF93DF93E5
:102450000BE813E0C7E6D2E0CE010E94C030F801DD
:1024600061918F01681719F0CE010E94CE3021963C
:10247000C938F2E0DF0781F7DF91CF911F910F910B
:102480000895EBE8F3E0128E138E8FEA90E09183CB
:10249000808385E0848F88E893E1938382834CE294
:1024A00051E05583448322E330E03783268385E07F
:1024B00090E0918780878AE090E09387828764E14B
:1024C00070E0758764875787468744E650E0518BF4
:1024D000408B48E050E0538B428B48E250E0558BF4
:1024E000448B378B268B28EC30E0318F208F158E74
:1024F000978F868F80E590E091A380A30E9424129D
:102500000C940C11CF93DF93C9E2D3E060E0CE01CD
:102510000E94CE302196C11584E0D807B9F7DF912B
:10252000CF9108950F931F93CF93DF938901833049
:1025300048F5663038F5403128F521153C4531F431
:1025400020910E0130910F01232BE1F090E2699F61
:10255000E001112450E0440F551FC40FD51F90EC2B
:10256000899FC00DD11D1124612FCE0187960E9435
:10257000CE30602FCE018896DF91CF911F910F91C1
:102580000C94CE30DF91CF911F910F910895CF938E
:10259000C82F6FEF811165EC83E290E00E94CE308E
:1025A0006FEFC11166E084E290E00E94CE306FEFE1
:1025B000C11168E585E290E0CF910C94CE30CF93C5
:1025C000C0916E04C2FB992790F9981799F080FB8F
:1025D000C2F9C0936E0460916D0484E090E00E94A3
:1025E000CE306C2F82E290E00E94CE3082E0CF911C
:1025F0000C94E70CCF9108957F928F929F92AF92A7
:10260000BF92CF92DF92EF92FF920F931F93CF93DF
:10261000DF93CDB7DEB764970FB6F894DEBF0FBE79
:10262000CDBFA0900E01B0900F0181E090E090939B
:102630000F0180930E0186E0C82E85E0D82E00E0C1
:10264000760110E015C0F40125913491472D612FDA
:10265000802F0E94921282E0880E911C7394E0E118
:102660007E12F1CFF0E2EF0EF11C1F5F163019F071
:102670004701712CE8CF0F5F80ECC80ED11C0330EE
:10268000F9F60E9441121A8219821C821B821E8254
:102690001D8218861F8288EC90E09A87898709E856
:1026A00012E04AE050E0B801CE0101960E94F230FB
:1026B000065F1F4F093DE2E01E0799F77E01FBE030
:1026C000EF0EF11C8AE0F70111928A95E9F74AE0D2
:1026D00050E0B801C7010E94F230065F1F4F093277
:1026E000F3E01F07A1F7B0920F01A0920E016496CC
:1026F0000FB6F894DEBF0FBECDBFDF91CF911F9113
:102700000F91FF90EF90DF90CF90BF90AF909F9090
:102710008F907F90089580E00E94C71260E086E26B
:1027200090E00E94CE300E94FC120E94821281E052
:102730000C94C7129B01883070F49AE0899FB00115
:10274000112467577D4F4AE050E0C9010E94B03024
:1027500090E080E008958FEF9FEF08958F929F9211
:10276000AF92BF92CF92DF92EF92FF920F931F939F
:10277000CF93DF93CDB7DEB72A970FB6F894DEBFBD
:102780000FBECDBF02EB13E0F12CE12C8AE4C82E82
:1027900088E2D82E94E7A92E98E2B92E23EB822E58
:1027A00027E2922EF801D182C082B382A282958262
:1027B0008482F58AE48ABE016F5F7F4F8E2D0E946E
:1027C0009A13892B29F489859A85F801938B828B3A
:1027D000FFEFEF1AFF0A0A5E1F4F88E0E816F104C8
:1027E00009F72A960FB6F894DEBF0FBECDBFDF9172
:1027F000CF911F910F91FF90EF90DF90CF90BF90FE
:10280000AF909F908F900895CF92DF92EF92FF92BA
:102810000F931F93CF93DF93CDB7DEB72A970FB6F1
:10282000F894DEBF0FBECDBFEAE6F2E080E5DF013F
:102830001D928A95E9F7E7E4F3E088E3DF011D9252
:102840008A95E9F78AE6C82E82E0D82E7F0109ED45
:1028500012E0F701D182C0824AE050E0B801CE0117
:1028600001960E94B03088E0FE013196D6010190B9
:102870000D928A95E1F789859A85D70113969C93E5
:102880008E931297BAE0CB0ED11CE7E0EE0EF11C4E
:10289000065F1F4F0932F3E01F07D9F62A960FB6DD
:1028A000F894DEBF0FBECDBFDF91CF911F910F9186
:1028B000FF90EF90DF90CF9008951092BE0280912C
:1028C0001C01E0E8F1E0882359F080916D0487FF56
:1028D00007C08EE1DF011D928A95E9F70C94AF0CD9
:1028E00086E0F8CF1F93CF93DF93CDB7DEB7AA97DB
:1028F0000FB6F894DEBF0FBECDBF89E994E02091FA
:10290000F100DC012D93CD01B4E0813A9B07B9F7CA
:1029100080919A04833009F472C0B8F4813009F4CC
:1029200049C0823009F4B3C08091E80083FF96C2A9
:102930008091990490919A049A3008F08FC2E92FFF
:10294000F0E0E65EFE4C0C947D308A3009F48EC0D7
:102950008B3009F471C0893039F780919904813244
:1029600019F780919D0490919E04009711F00297B1
:10297000D9F68091E800877F8093E8008091E80095
:1029800082FF38C09091F3008091F200029731F4F9
:102990008091F100813011F0863021F48091F100B6
:1029A000809374048091E8008B778093E8000E9404
:1029B0000D05BACF80919904813A09F0B5CF809185
:1029C000E800877F8093E80080919D0490919E04A9
:1029D000892B61F460E285E794E070E00E94BF0516
:1029E0008091E8008B778093E8009ECF60E090E0D4
:1029F00080E0F3CF809197048111C0CF95CF809173
:102A00009904813A09F090CF80919D0490919E04A1
:102A1000892B09F089CF8091E800877F8093E800B7
:102A20008091E80080FFFCCF80911C018093F10031
:102A30008091E8008E77B9CF80919904813209F0B6
:102A400073CF80919D0490919E04892B09F06CCFE7
:102A50008091E800877F8093E8000E940D058091B7
:102A60009B0480931C010E945D145ECF80919904A9
:102A7000813209F059CF8091E800877F8093E80088
:102A80000E940D0580919C04809373044DCF80912A
:102A90009904813A09F048CF8091E800877F8093BC
:102AA000E8008091E80080FFFCCF80917304BECFE6
:102AB000803899F0823809F0D1C180919D048F70DF
:102AC000873008F0CBC18093E9008091EB0085FB53
:102AD000882780F91092E90006C0809195049091B2
:102AE0009604911182609091E800977F9093E8009E
:102AF0008093F1001092F1008091E8008E77AAC1D6
:102B0000882309F498C1823009F0A8C180919B0400
:102B100081119BC180919D048F702FEF280F26306B
:102B200008F09CC18093E9002091EB0020FF8DC14B
:102B3000933031F48091EB0080628093EB0085C18B
:102B40009091EB0090619093EB0021E030E001C0A8
:102B5000220F8A95EAF72093EA001092EA0080910A
:102B6000EB008860EACF811179C110919B041F7737
:102B70008091E3008078812B8093E3008091E800CE
:102B8000877F8093E8000E940D058091E80080FF18
:102B9000FCCF8091E30080688093E30082E0111114
:102BA00083E0809397045AC18058823008F056C160
:102BB00020919B0430919C042C3DE3E03E07A1F55D
:102BC00083E08A838AE289834FB7F894DE01139603
:102BD00020E03EE051E2E32FF0E050935700E49113
:102BE00020FF03C0E295EF703F5FEF708E2F90E003
:102BF000EA30C0F0C7968D939D932F5F243159F72B
:102C00004FBF8091E800877F8093E8006AE270E020
:102C1000CE0101960E94BF058091E8008B778093DA
:102C2000E8001CC1C096E7CF80919D0490919E045E
:102C3000432F55274330510509F44AC078F54130F8
:102C4000510509F485C08BE590E0EEEDF7E04230E8
:102C5000510509F003C12091E800277F2093E80087
:102C600020919F043091A0048217930708F49C01DF
:102C700040E02115310509F070C041116EC080910E
:102C8000E80082FDC9CF80919704882329F285301E
:102C900019F28091E80083FFF2CFBECF4132510597
:102CA00009F447C04232510509F0D8C0833091057C
:102CB00008F0D4C0FC01EE0FFF1FE159FE4F019058
:102CC000F081E02D84599E4FDC018C9190E01DC075
:102CD000332721303105E9F02115310579F0223013
:102CE0003105F9F02330310509F0B8C0EBE4F8E024
:102CF000E4918E2F90E0EBE4F8E007C0EFE8F8E015
:102D0000E4918E2F90E0EFE8F8E0009709F4A6C078
:102D1000A2CFE3E8F8E0E4918E2F90E0E3E8F8E05A
:102D2000F4CFE9E6F8E0E4918E2F90E0E9E6F8E0F0
:102D3000ECCF8330910508F091C0880F991FFC01FA
:102D4000EB58FE4F0190F081E02D89E090E083CFB9
:102D500082E190E0E9E3F8E07ECF80919704882358
:102D600009F45ACF853009F457CF8091E80083FDEC
:102D700053CF8091E80082FD82CF8091E80080FFF0
:102D800078CF9091F3008091F2002115310519F070
:102D90008830910550F041E0089709F040E08091BB
:102DA000E8008E778093E80064CF44914093F1006F
:102DB0003196215031090196E8CF803809F04EC094
:102DC0008091E800877F8093E80080919804809349
:102DD000F10092CE811142C010919B041230F0F5A7
:102DE0008091E800877F8093E800109398040E9408
:102DF0000D05112311F084E005C08091E30087FDEB
:102E0000FACF81E08093970442E061EC81E00E9478
:102E10002C0542E261EC84E00E942C0542E261EC68
:102E200082E00E942C0542E260EC83E00E942C05C7
:102E30008091970413C080919B04813079F481E0E4
:102E4000933009F080E0809396041092E90080911D
:102E5000E800877F8093E8000E940D058091E800DC
:102E600083FF0AC08091E800877F8093E80080910B
:102E7000EB0080628093EB00AA960FB6F894DEBF59
:102E80000FBECDBFDF91CF911F9108956AEE7EEF07
:102E900090E080E00E94EC3060E082E090E00E94F0
:102EA000CE3060E083E090E00E94CE3010921702B6
:102EB00060E084E090E00E94CE3060E082E290E04A
:102EC0000E94CE3060E085E090E00E94CE3060E06D
:102ED00086E090E00E94CE306FEF87E090E00E94A5
:102EE000CE3040E050E0BA0188E090E00E94E0304F
:102EF00060E08DE090E00E94CE3040E050E0BA010A
:102F000088E190E00E94E03060E087E190E00E947C
:102F1000CE3040E050E0BA018CE190E00E94E03019
:102F200070E060E080E290E00E94EC3040E050E031
:102F3000BA0188E190E00E94E03080E00E94C71270
:102F40000E948B1340E050E0BA018FE090E00E94B5
:102F5000E03040E050E0BA0183E190E00C94E030D2
:102F60008F929F92AF92BF92CF92DF92EF92FF9299
:102F70000F931F93CF93DF9300D000D0CDB7DEB770
:102F80007C01DC0113964D915C91149711966C9124
:102F900011978C910E94D306811179C061E0C7011D
:102FA0000E94EF118C01F7018281811111C0D701BC
:102FB00012968C91811149C00031FFE51F0709F479
:102FC000EEC001312FE5120709F007C782E0E8C023
:102FD0008091000190910101019649F362EBC62EA8
:102FE00063E0D62EB12CA12C9924939480910001FA
:102FF000909101018A159B05D4F2F6018681882300
:10300000E9F0818592850817190739F48091B0039A
:103010009091B1030817190789F0D6011F969C9269
:103020001F971C961C930E931B97C6010E94C60BFC
:10303000C60106960E94810B1092A204BFEFAB1A44
:10304000BB0AE6E1CE0ED11CD1CF980122513F45FB
:103050002031310508F0B7C68FEF93E00E94C030F1
:103060005EEED52ED00E09E213E0882369F180913F
:103070001202877061F0D70112968C91882339F083
:1030800080916E0482FD03C082E00E94E70C0F90E5
:103090000F900F900F90DF91CF911F910F91FF90A4
:1030A000EF90DF90CF90BF90AF909F908F9008955A
:1030B0000115F4E01F07D9F2C8010E94C030811148
:1030C00001C0DA940F5F1F4FD110F2CF19821A821C
:1030D0001B821C82CC24CA9448012FEF821A920AC8
:1030E000C8010E94C03089831A82882309F4BFCFA7
:1030F000813009F048C0580132E0A30EB11CC40170
:103100000E94C030982E8A83882309F4B0CFC5016D
:103110000E94C030D82E8FEF890D833068F458019B
:1031200043E0A40EB11CDB82DD2021F0CE0101962C
:103130000E9464108501D0CF54E09512FBCF580156
:1031400084E0A80EB11CC80103960E94C030DD20A7
:1031500009F48DCF882309F48ACF8150990BC89E3A
:103160009001C99E300D1124AD2DA150BB0BCD0196
:10317000820F931F0197F0F2EFE9FFE03197F1F72B
:1031800000C00000F7CFCE0101960E9464105401E8
:10319000D1CF81E00E94030D0E94D00C68CF81E066
:1031A0000E94DB0CF9CF82E0F5CF4FEFC416D104BB
:1031B00011F008F01EC660E672E08C2D0E949A1392
:1031C000892B29F586E18C9DF0018D9DF00D112450
:1031D000EE54FC4F8681813009F062C0809160021C
:1031E00090916102892B99F0809162029091630223
:1031F000892B69F0809164029091650220916602AA
:1032000030916702822B932B892B09F453C0809154
:103210000001909101018C159D0524F4D0920101CB
:10322000C0920001F701828196E19C9D50019D9D15
:10323000B00C112495012E543C4F6901D9015096D0
:103240008C935097928116968C911697992309F436
:103250003FC01A961C930E9319978F5F16968C9306
:103260000E943006F6019687858780911602878333
:103270008091A2049091BE02892B80870190F081F9
:10328000E02D309741F0D60154966D917C91C501A7
:1032900088549C4F09951093B1030093B003A9C5BE
:1032A000823009F0B4CF8091640290916502892B3D
:1032B00009F4ADCF26E12C9DC0012D9D900D112468
:1032C0008E549C4FDC0150961C920E94C60B9FCFDF
:1032D000882309F48EC5F9018189882309F489C5F9
:1032E000C50188549C4F0E94810B83C580911A01AF
:1032F000816080931A01ABC580911A018E7F809303
:103300001A010E94E70BA3C580911A018F7E013E2E
:10331000110531F0053E1105C9F480911A018F7D28
:1033200080931A0180911A0180FFA0C5D7011296DF
:103330008C910832110528F50E31110508F074C082
:103340000430110580F581118DC590C5C8019056D6
:10335000811540E2940720F0905E8115904110F7AE
:1033600080911A0182FF82C58091A80381FD7EC5EC
:103370002BE132E040E0B60190E080E00E94200FB7
:1033800075C50933110558F40D32110518F40B32C7
:103390001105C9F69091A60392FDD5CF08C0043659
:1033A0001105C1F3D0CF9091A60394FDCCCF882313
:1033B00009F4A1C09091BE0280911602282F292BFA
:1033C000322F3D7FB1F11092E2021092E102309172
:1033D000A60331FD2EC0F80143E0F695E7954A9526
:1033E000E1F7EE71FF27E154FD4F98012F7033276D
:1033F00081E090E002C0880F991F2A95E2F780953E
:10340000909520813181822393239183808360E092
:10341000C8010E944B0E809116028D7F0E94E40A23
:1034200082E00E94E70C23CE9091A60393FD8BCF00
:10343000BECF38E0F701ABE1B2E001900D923A95D2
:10344000E1F710921D0210921F0210921E02A0902E
:10345000E102B090E2020A151B05B1F53091A60316
:1034600035FF32C040911A0141FB992490F841FF89
:1034700002C036FF29C04091DF025091E002B60140
:10348000641B750B4091A3035091A4036417750747
:10349000D8F491FF08C080911A01806180931A01CD
:1034A00082E00E94FF0A8091BE0285FF08C08091E1
:1034B0001A01806280931A0180E20E94FF0A692D3E
:1034C000C5010E944B0ED3CD90911A0121FB91F9B9
:1034D00090931A018D7F0E94E40A1093E2020093F8
:1034E000E102D092E002C092DF0280911A01846072
:1034F00080931A0195CF970140E0B601C8010E9460
:10350000200FB5CD053F4CE5140709F467C008F45A
:103510005FC0063F8CE5180709F466C0D701129614
:103520003C91332309F4C1C41092AF030330BDE5CD
:103530001B0708F065C00A3FECE51E0730F4C80120
:1035400082509C45449708F060C00E9416129093E8
:103550006E0480936D0400312CE5120709F461C1FB
:1035600008F0DDC008304CE5140709F448C108F044
:10357000AFC004308CE5180709F433C108F095C0DA
:103580000230ACE51A0709F426C180916D0482600F
:1035900003301C4509F422C160916D0410916E0442
:1035A00084E090E00E94CE30612F82E290E00E94A1
:1035B000CE300E945D145BCD07E225EE45EE68ED4E
:1035C0007CE56FC406E221EE40EE63EF7CE569C462
:1035D00007E225EE44EE64EF7CE563C406E221EEEB
:1035E00042EE65EF7CE55DC407E225EE46EE66EF50
:1035F0007CE557C408E221E045EE69ED7CE551C465
:103600000136FDE51F0709F4A0CF06315CE515077B
:1036100009F44FC40A354DE5140709F453C108F005
:103620002FC101158CE5180709F43CC10E3D1C455E
:1036300009F445C1F70186819781009709F446C1D5
:103640000E945109182F092FF701D280C580C2941A
:103650003FE0C322809112028770C1F0AD2CDD20C3
:10366000B1F0892F807F803421F080E2810F883093
:1036700068F080916E0482FD09C082E00E94E70C30
:10368000809112028770AA24A3948111A12C902EFC
:1036900092942FE09222FBE0F91508F4A4C1E92DE1
:1036A000F0E0EC5DFE4C0C947D3080916D04806107
:1036B0000630ECE51E0709F491C080916D04886026
:1036C00007301C4508F48AC080916D04806286C072
:1036D00080916D048D7F0C302CE5120709F47EC0BB
:1036E00070F480916D048C600A304CE5140709F485
:1036F00075C008F488C080916D048E7F6FC00E3055
:103700008CE5180709F485C080916D048B7F0F301C
:103710001C4508F463C080916D048F7E5FC00C3F30
:10372000ACE51A0709F479C068F50431ECE51E0729
:1037300009F48BC080F402312CE5120709F475C03E
:1037400080916D048F7B03311C4508F447C0809144
:103750006D04837F43C00A3F4CE5140709F445C05C
:1037600008F049C005311C4509F016CF80916D0461
:1037700082FB992790F921E0922790FB82F990FB38
:1037800083F92CC001159DE5190709F454C088F48C
:1037900080916E0483600E3FBCE51B0749F1809168
:1037A0006E048D7F0F3F1C4518F180916E048C7F55
:1037B0001FC00230FDE51F0709F456C008F44EC0D3
:1037C00001361D4509F0E8CE90916D04892F8F7E5A
:1037D00094FF806103C080916D04816080936D04CB
:1037E000DBCE80916D048460F9CF80916E0481609E
:1037F00080936E04D1CE80916E048260F9CF809167
:103800006D048064EBCF0E945D1480916D0480682C
:10381000E5CF80916D04877FE1CF80916E048E7F2C
:10382000E7CF80916D048F7DD9CF0E945D14809188
:103830006D048F77D3CF80916E04982F90959170FF
:103840008E7F892B90FB81F9D3CF0E945D149091DC
:103850006D04892F97FB87F98058C0CF61E08EE017
:1038600090E00E94CE3098CE60E0F9CF80919E012A
:1038700069E2811165E38EE791E00E943C0646C350
:103880000B35ADE51A0701F10C351D4509F0D2CE17
:1038900080916E0482FB882780F991E089270E943D
:1038A000DF12C8CE0E945D14EFEFF4E32CE0E1508C
:1038B000F0402040E1F700C000000E94F20E0E949C
:1038C0004617D5CB81E0EBCF80E0E9CF8281008144
:1038D0001181882369F0C8010E947D11D82E682FBC
:1038E000C8010E94610CB8018D2D0E946111A8CE03
:1038F000C8010E94350CD82EF6CF202F2F70B22E83
:10390000802F807F19F0B29490EFB922DD20A9F0CA
:10391000BB2059F080E2810F883010F0111107C0F0
:103920008B2D0E94060B0E942D0B812F5AC0809177
:10393000A204B82AB092A204F6CF812F0E94470DAC
:10394000BB2009F450C080E2810F883010F01111C3
:1039500004C08B2D0E94FF0A03C08B2D0E94F80A21
:103960000E942D0B40C0302F3F70B32E802F807FE0
:10397000803219F0B29480EFB822112321F1113076
:1039800009F4A4C0DD2009F4ADC0CC2009F47DC049
:1039900020E0D7014C9111965C91119712966C9191
:1039A000129713967C91139714968C910E94C611CE
:1039B0008091A80381FDB9CFF701858180FFB5CF44
:1039C0008F70858362C080916E0482FF40C0DD20CD
:1039D000C1F1BB2029F08B2D0E94060B0E942D0BFC
:1039E00080E00E94790DA92DA850BB0B149710F40C
:1039F0000E94C706812F902F0E94900C8111C4C194
:103A00001092A00110929F01AA20B1F080911202A1
:103A100080FD12C0D70112961C92859585958595DB
:103A20000E94030DC7010E94B01780911202859574
:103A3000859585950E94DB0C60E0C7010E94EF111F
:103A400026CB80E00E94470DBB2069F282CFDD20AB
:103A500001F1C11004C0809116028B2917C041E00A
:103A6000C41206C0809116028B290E94E40ABBCFC3
:103A70008091A703823078F3C812EDCF0E94D90A53
:103A800080910F02B812B0920F028B2D0E94400D50
:103A9000AACFC11006C00E94D90A8B2D0E94390DF1
:103AA000A2CF8091A70351E0C5120BC0823008F469
:103AB0009ACF8091BE028B2109F495CF0E94050C0C
:103AC000EACF823040F3C812E6CF8DCFDD2029F057
:103AD00085E08C1508F487CFD8CF94E09C1508F4C6
:103AE00082CFDBCFCC20C9F28091AB039091AC03A5
:103AF000193321F08091A9039091AA030E94160F17
:103B0000812F0E94470D6FCF802F869586958370F9
:103B100069F0813009F067CF812F902F9370D11019
:103B200002C090E080E00E949B065DCF812F902F25
:103B30009370D11002C090E080E00E94B10653CF94
:103B4000812FDD2029F00E948D080E944B074BCF6A
:103B50000E947207FACF802F837091F5D11043CF66
:103B6000412F429546954770440F440F812F8F7027
:103B7000042E01C0880F0A94EAF7212F207114FF48
:103B800007C02FE030E001C0220F4A95EAF72095E8
:103B9000302F369536953370323069F050F44091BD
:103BA0001702313029F0822B84230E94240D1BCF71
:103BB000842B822BFACF282B809117028227F5CFF6
:103BC0008695DD2011F0802F8170882309F40BCFBA
:103BD000412F429546954770440F440F812F8F70B7
:103BE000042E01C0880F0A94EAF7212F207114FFD8
:103BF00007C02FE030E001C0220F4A95EAF7209578
:103C0000302F369536953370323069F050F440914C
:103C1000A104313029F0822B84230E94CC0CE3CE06
:103C2000842B822BFACF282B8091A1048227F5CFF9
:103C3000F02FFF70BF2EDD2029F08F2F0E94030D83
:103C4000812F24CF812F0E94390D8B2D0E94DB0CF8
:103C5000CACE123F89F160F4103FB9F0113F81F0F4
:103C6000DD2009F48CC0C11060CE802F8F7128C078
:103C7000133F49F1143FA1F780916E0482FF2FC0DA
:103C8000802F8F71DD2011F31BC0DD2081F024E037
:103C90002C1508F4A8CE202F2F7181E090E001C0F0
:103CA000880F2A95EAF79091A1048927B6CF35E0CD
:103CB0003C1508F498CEEFCF802F8F71D110C6CF6E
:103CC0000E94030D90CE80E0DD2009F4A6CF81E0B4
:103CD000902F9F7101C0880F9A95EAF79ECF80912F
:103CE000A7038230A0F180910F02DD20F1F00E9445
:103CF000FF0A809112028770843041F40E940C0BFD
:103D0000802F8F710E94DB0CA12C6DCE8091A703B8
:103D1000C816D0F7402F4F71B42E842F0E94030D88
:103D200063E08B2D0E940E0DEFCF0E94060B809159
:103D3000A703C81640F00E940C0B0E94050C64E01B
:103D4000802F8F71EFCF81E00E94E70CDDCFDD2067
:103D500059F0502F5F71B52E852F0E94030D63E03F
:103D60008B2D0E940E0D3FCE81E00E94E70C81E07A
:103D70008C1508F038CE82E00E94E70C34CEC110DA
:103D8000B3CE802F8F7162CFDD2019F0C11038CEF5
:103D90003BCEC11035CE20E0F701408151816281D8
:103DA000738184810E94C6118091A80383FF28CE6D
:103DB00080919F019091A001029709F021CE812F5F
:103DC0000E94DC0F1DCE0031BFE51B0709F4E1C9DD
:103DD0000131EFE51E0709F4E6C9680127E5D21AAB
:103DE000882309F4E2C93FEFC316D10409F008F4AF
:103DF0000ECA8091A60380FF39C00E9430066C0174
:103E0000D70112968C91882309F47ECA80911A01F9
:103E100082FF08C02BE132E040E0B60190E080E094
:103E20000E94200F0B31BCE51B0709F45FCA0C315F
:103E3000ECE51E0709F460CA90911A01892F8E7F64
:103E400090FF81600A31FCE51F0709F458CAC801D8
:103E50009056811520E2920728F0905E81159041DE
:103E600008F060CA1092E2021092E102033FBCE542
:103E70001B0709F4A7CB08F045CB083DFCE51F075D
:103E800009F49ACB093D2CE5120709F4B3CB073DA1
:103E90003CE5130709F042CB06E221EE41EE67ED67
:103EA0007CE5C7010E94FD0FE2C806311C4509F000
:103EB000C1CB8091BE02982F9A7A2091A50320FF52
:103EC00004C0482F447409F090E021FF04C0482F3B
:103ED000417109F090E022FF04C0482F487809F0B2
:103EE00090E023FF03C0827209F090E0332309F4CD
:103EF000BDCC81E0911101C080E080939E0169E218
:103F0000911165E38EE791E00E9466060E942D0BF9
:103F1000AEC8CF92DF92EF92FF920F931F93CF9391
:103F2000DF938091CA01807F31F48091C701C091F5
:103F30000E0281110BC0DF91CF911F910F91FF9065
:103F4000EF90DF90CF9008952196C7708091CD01BA
:103F50008C1789F3F090C501E090C601C090C801AC
:103F6000D090C901A6016E2D8F2D0E94D306D0E0FE
:103F70008111EACF8E0183E0000F111F8A95E1F7CE
:103F8000F801E253FE4F81818E11DECF80818F11C7
:103F9000DBCF82818111D8CFE380F480EC18FD085B
:103FA00060E085EC91E00E94EF118091A303909175
:103FB000A403E816F90640F68091CA018F7080616B
:103FC0008093CA01F801ED52FE4F80818F708061AD
:103FD000808385EC91E00E94B017DF91CF911F9113
:103FE0000F91FF90EF90DF90CF900C942B0C3F92AD
:103FF0004F925F926F927F928F929F92AF92BF92F9
:10400000CF92DF92EF92FF920F931F93CF93DF93A4
:10401000CDB7DEB765970FB6F894DEBF0FBECDBF44
:104020008C0185E0F801DE01519601900D928A9590
:10403000E1F7D8014C9011965C9011971296EC9094
:1040400012971396CD90DC9060E085EC91E00E9491
:10405000EF1185ECA82E81E0B82E8090C8019090D9
:10406000C901A4016091C6018091C5010E94D306D7
:104070008111CAC1F090C701F601E819F9094F0191
:1040800060E0FF2009F46DC1C5010E94EF1160904E
:10409000A3037090A4033090CA018614970408F01B
:1040A00013C14091C8015091C901B090C501A090C1
:1040B000C601832D807F6A2D09F0ADC08B2D0E9433
:1040C000D306FE2C81113BC0D80111968C9111971B
:1040D0008A1135C08C918B1132C02091CB01309167
:1040E000CC0116968D919C912817390741F5E11066
:1040F00026C0832D8F7080618093CA0185EC91E08A
:104100000E94B0178091CA01F80185838F2D6596B2
:104110000FB6F894DEBF0FBECDBFDF91CF911F91D8
:104120000F91FF90EF90DF90CF90BF90AF909F9056
:104130008F907F906F905F904F903F900895F4EF35
:104140006F16F1E07F0620F48091A80380FF21C064
:10415000A601652D842D0E94D306811118C081E02F
:104160008E2580FF16C04E2D652D842D0E940B0CD0
:10417000882379F085EC91E00E94B01788E0E5ECA7
:10418000F1E0DF011D928A95E9F7F12CBFCF80E0C5
:10419000E8CFA601652D842D0E94D306811124C08D
:1041A00081E08E25B82FB170CB2E80FF2BC04E2D15
:1041B000652D842D0E940B0CD82E811123C0498AB5
:1041C0005A8A89899A890E94AC11292F22952F70C9
:1041D000223060F0243088F49F7061F0F8019581FE
:1041E000907F41F4FD2C92CF80E0DCCF9F7011F0E6
:1041F0008823C1F3805E8830A8F3C8010E94B017FD
:10420000DC2CF0CFEE2009F481CF8091CA018160CF
:104210008093CA01BACF8B2D0E94D306811124C08E
:10422000D80111968C9111978A111EC08C918B1117
:104230001BC02091CB013091CC0116968D919C91A1
:1042400017972817390781F4E1100EC015963C9294
:10425000C8010E94B01788E0F801A5ECB1E0019018
:104260000D928A95E1F752CFC8010E94B8118823B8
:1042700039F1EE2029F18091CA018032A0F020911D
:10428000C5013091C6013A8729871B86DD86CC8619
:104290008E878091CB019091CC01988B8F87CE0136
:1042A00009960E94B01788E0F801A5ECB1E00190F2
:1042B0000D928A95E1F70E94891FFF24F39426CF7F
:1042C000C8010E94B017F9CF832D807F09F452CF27
:1042D0009090C5018090C6014091C8015091C901DC
:1042E000682D892D0E94D30681111CC0F80181819F
:1042F000881118C08081891115C02091CB0130919F
:10430000CC01868197812817390761F4E1100AC032
:104310003582C8010E94B01788E0D5011D928A95A8
:10432000E9F7F4CEC8010E94B811882349F2EE20C3
:1043300039F28091CA01803208F4B5CF2091C501CD
:104340003091C6013A8329831B82DD82CC828E8321
:104350008091CB019091CC0198878F83CE010196FB
:10436000A0CF85EC91E00E94EF118091A303909182
:10437000A4038816990680F6FE2CEE2009F4A0CF3F
:10438000E090C501D090C6014091C8015091C9018B
:104390006D2D8E2D0E94D306811128C0F8018181D8
:1043A0008D1124C080818E1121C02091CB013091CC
:1043B000CC018681978128173907C1F48091A80321
:1043C00082FD49CF9091CA0190FD45CF907F09F4BD
:1043D00042CF8091CA018583903F09F439CF982F4D
:1043E000907F905F8F70892B858332CFC8010E94A8
:1043F000B811811158CF8091CA0181608093CA01A0
:10440000C8010E94B01782CEEE2009F459CFC8012E
:104410000E94B811F82E882309F452CF88E0F801E1
:10442000A5ECB1E001900D928A95E1F78091C5016C
:104430009091C6010E94AC110E94891F67CECF9354
:10444000DF93CDB7DEB760970FB6F894DEBF0FBE2F
:10445000CDBF29873A874B875C876D877E878F879B
:10446000988BCE0109960E94F71F81112FC088E01A
:10447000FE013996DE01119601900D928A95E1F7C1
:104480004C855D856A8589850E94D30681111EC091
:10449000A091CD01B0E0CD010196877099272091C0
:1044A0000E022817190609F193E0AA0FBB1F9A956F
:1044B000E1F7A253BE4F98E0FE01319601900D92B4
:1044C0009A95E1F78093CD010E942B0C80910E020A
:1044D0009091CD01891317C060960FB6F894DEBF96
:1044E0000FBECDBFDF91CF9108950E945D14109251
:1044F000CD0110920E0288E0E5ECF1E0DF011D92A3
:104500008A95E9F7E3CFB8E08B9FC001112482536D
:104510009E4F0E94F71F8823F9F280910E0290E0CF
:1045200001968770992780930E02D0CFEF92FF9269
:104530000F931F93CF93DF938091E602882361F05E
:10454000C091E5028CE0F82E8091E602C81758F081
:104550001092E6021092E502DF91CF911F910F9128
:10456000FF90EF900895EE24E394EC0EE092E502C4
:104570000C2F10E0CF9DE0011124C951DD4F4B817C
:104580005C81698188810E94D30681111BC08E8164
:104590009F81892B21F488859985019651F4288182
:1045A00039814A815B816C817D818E819F810E94EE
:1045B0001F22F09EF001F19EF00D1124E951FD4FF4
:1045C00014821382CE2DC0CF10928A0310928903D9
:1045D00010921B0180918803809387030E940C072F
:1045E0000C9496223F924F925F926F927F928F929D
:1045F0009F92AF92BF92CF92DF92EF92FF920F9372
:104600001F93CF93DF93C091870397E0892E01E03A
:1046100010E02CE0322E3EEF932E44244394809100
:1046200088038C1315C00E949622DF91CF911F91B1
:104630000F91FF90EF90DF90CF90BF90AF909F9041
:104640008F907F906F905F904F903F900C940C07ED
:10465000D0E0FE01EE0FFF1FE158FC4F80819181F9
:10466000889ED001899EB00D1124A95BBC4F149681
:104670002C911497211157C05090E602E7EEF2E01A
:1046800030E020E0712C5D01251508F04AC0E2847D
:10469000F384D501CD90DC906FEF7FEF612C462D38
:1046A00050E0DA01AA0FBB1FAC0DBD1D0D90BC91EF
:1046B000A02D109731F0EA16FB0609F4BA016394B5
:1046C000EECF6F3F7607A1F1D80102C0AA0FBB1F42
:1046D0006A95E2F77A2AB80102C0660F771F6A94DA
:1046E000E2F7AB014150510974161506F9F4329EF8
:1046F000F001339EF00D1124E951FD4F889ED00149
:10470000899EB00D1124A95BBC4F12962D913C914E
:10471000139737832683908291829187808715969D
:104720004C920E94DE062196C37079CF14821382C8
:104730002F5F3F4F3C96A8CF4F925F926F927F9230
:104740008F929F92AF92BF92CF92DF92EF92FF92A1
:104750000F931F93CF93DF93CDB7DEB72C970FB690
:10476000F894DEBF0FBECDBF8E010F5F1F4F8CE0F0
:10477000F80111928A95E9F796E5E92E91E0F92E74
:1047800068012CE5422E21E0522E66246394712CA0
:104790004CE6842E41E0942EF70181917F018F3FFA
:1047A00009F445C0F894E82FE295EF70F0E021A1FC
:1047B0008F70A30102C0440F551F8A95E2F7CA010A
:1047C000922F982B91A392A18095892382A378940C
:1047D00000C0ECE5F1E021E030E0B12CA12C4191EA
:1047E0004F3F09F486C0A42FA295AF70B0E0909619
:1047F0008C9190E04F7002C0959587954A95E2F7AD
:1048000080FD77C0C901A82AB92A220F331F8E164E
:104810009F0629F7F701319780818F3F11F00E94A1
:10482000F70850EA5A95F1F7F601B182A082F2E05A
:10483000CF0ED11C4E145F0409F0AECF4CE050E017
:10484000B80183E292E00E949330DD24D394009774
:1048500009F4D12C892B09F44FC08CE0F801A3E2B4
:10486000B2E001900D928A95E1F781E080931A02FF
:104870000E943006909319028093180280911802CA
:10488000909119020E9421060597D0F18091230290
:10489000909124029093400280933F0280912502E0
:1048A00090912602909342028093410280912702C8
:1048B00090912802909344028093430280912902B0
:1048C00090912A02909346028093450280912B0298
:1048D00090912C02909348028093470280912D0280
:1048E00090912E0290934A028093490210921A02EC
:1048F00007C090E080E087CF80911A028111BECF7F
:10490000809100019091010110E006E1019609F00B
:104910006DC080911B01811173C08091A60380FF3F
:104920001EC080911A0182FF1AC00E943006209199
:10493000DF023091E002AC01421B530B20911801C1
:10494000309119014217530750F02BE132E041E05A
:10495000BC018091E1029091E2020E94200F8D2D16
:104960002C960FB6F894DEBF0FBECDBFDF91CF916E
:104970001F910F91FF90EF90DF90CF90BF90AF907D
:104980009F908F907F906F905F904F900895089FB9
:10499000F001099FF00D1124EE54FC4FE288F388DA
:1049A000E114F10421F4E090A303F090A403089F24
:1049B000F001099FF00D1124EE54FC4F86818823ED
:1049C000A1F0858596850E942106E816F90668F40F
:1049D000109F70011124C7018E549C4F0E94C60B7A
:1049E000C70188549C4F0E94810B1F5F812F90E06C
:1049F00020910001309101012817390744F689CF31
:104A00008091890390918A03009709F486CF0E94D0
:104A100021062091E3023091E4022817390708F0BB
:104A20007CCF9091870380918803981759F00E945A
:104A3000F2221092E4021092E30210928A03109282
:104A400089036BCF0E94962210928A0310928903E9
:104A50000E940C0762CF2F923F924F925F926F920B
:104A60007F928F929F92AF92BF92CF92DF92EF92FE
:104A7000FF920F931F93CF93DF93CDB7DEB7699764
:104A80000FB6F894DEBF0FBECDBF942F498B252FF4
:104A90005A8B6B8B7C8B8D8B4C895D89622F892F18
:104AA0000E94D306811109C080919F019091A001BD
:104AB00001969093A00180939F018B8981111092A0
:104AC000A2041D861E861F86188A85E0FE01719647
:104AD000DE01199601900D928A95E1F780916E049E
:104AE00082FD1EC080918D0390918E03892BC1F0B1
:104AF0000E9430062091100230911102821B930B0C
:104B000020918D0330918E038217930720F08091BE
:104B1000120282FFF5C10E94130B81110E94D90A73
:104B20004C855D856A8589850E94D306811111C0F7
:104B300061E0CE0109960E94EF116C018B8527EF91
:104B4000C2162CE5D20681F4882321F181E08093FE
:104B50001B0129853A854B855C856D857E858F8512
:104B600098890E941F22C5C038EFC3163CE5D306C2
:104B700029F4882379F00E94E422EBCF49EFC41690
:104B80004CE5D40639F4882329F080911B0181116A
:104B9000F2CFDCCF07E413E0512CB12CA12C22245E
:104BA0002394312C2EEF422EF8014081518188242C
:104BB0008A94982C20E0822F90E0FC01EE0FFF1FDA
:104BC000E40FF51F608171816115710531F0C61622
:104BD000D70609F44C012F5FEECFF12CFFEF8F16B3
:104BE0009F0609F448C0F8014481F0901B018F2D05
:104BF000411180E0F82FF170FF2EF801E5808681E9
:104C00009B85992309F40CC1FF2009F409C1609028
:104C1000A1037090A203E11012C0A10101C0440FD2
:104C20008A94EAF7842B86838091E3029091E402D0
:104C30008615970520F47092E4026092E302C101A8
:104C400002C0880F991F2A95E2F70197F801268183
:104C50002817190681F48091890390918A0300979F
:104C600009F460C00E9421066816790608F05AC04F
:104C700021E0F80124835F28FFEFAF1ABF0A095F24
:104C80001F4F28E0A216B10409F08ECF8B85882330
:104C900009F421C1552009F41EC10E9430069093E9
:104CA0008A03809389038091E602883010F591E0B1
:104CB000980F9093E60298E0FE013996DE01119676
:104CC00001900D929A95E1F73CE0839FC001112479
:104CD00089519D4F28E0FE013196DC0101900D9233
:104CE0002A95E1F72FEF3FEFFC0131872087D3862C
:104CF000C28669960FB6F894DEBF0FBECDBFDF91B6
:104D0000CF911F910F91FF90EF90DF90CF90BF90C8
:104D1000AF909F908F907F906F905F904F903F905B
:104D20002F9008958091870350918803982FF0E089
:104D3000E0E0851314C090938703E017F10709F4AE
:104D40009ACF90E0FC01EE0FFF1FE158FC4FB182BB
:104D5000A082019683709927809388038CCF682E58
:104D6000712CF301EE0FFF1FE158FC4F20813181C0
:104D700047E0429FD001439FB00D1124A95BBC4F77
:104D80006D917C911197798F688F40E020E030E041
:104D9000E32FF0E0EE0FFF1F688D798DE60FF71F10
:104DA0008080918081149104E1F0F8010190F081FC
:104DB000E02DFF8BEE8B20E005C08616970609F4E8
:104DC0004F2D2F5FE22FF0E0EE0FFF1F6E897F89DE
:104DD000E60FF71F608171816115710571F73F5F03
:104DE000D7CF4423D1F0F801231708F0FD0121E0CB
:104DF00024830E171F0721F490938703F42E3BCFD3
:104E0000981305C0AE17BF0711F49F5F937093010D
:104E10002F5F3F4F822F83708CCFF0E0E0E0F7CF21
:104E200090E0E1101FC0B10102C0660F771F2A9504
:104E3000E2F79B01215031098217930731F4442393
:104E400009F447C0C5010E94DE06C10101C0880FF8
:104E50008A94EAF7982F9095F801868189238683B2
:104E6000FE2C09CF9C01082C02C0359527950A9489
:104E7000E2F7A90141705527BC01615071098623F1
:104E80009723892B11F5452B01F1F801828193813C
:104E9000892BC1F01B821C821D821E8249824A829C
:104EA0000E9430068160582F9D838C83F801828197
:104EB00093818F83988729813A814B816D817E818F
:104EC0000E941F22F8011582C0CFF22FF170EF2E41
:104ED000BCCFEF2CBACF90918703809188039817AD
:104EE00031F00E94F222552009F433CE02CF0E9405
:104EF000962210928A03109289030E940C07F3CF26
:104F000082E00E94E70C07CECF93DF9300D000D061
:104F10000F92CDB7DEB79093BB028093BA02811592
:104F200020E2920748F40F900F900F900F900F908F
:104F3000DF91CF910C941C0E8EEF89838A831B82A4
:104F40000E9430068160782F9D838C8349815A812D
:104F50006B818D810F900F900F900F900F90DF91CC
:104F6000CF910C942B250F931F93CF93DF938C013C
:104F7000EB0160E672E08C2F0E949A13892BA1F45A
:104F80008091A9039091AA030E94160FDD27C85AA9
:104F9000DD4F8881F80110821882833009F148F4CE
:104FA000813059F0823081F0DF91CF911F910F91C4
:104FB00008958430D1F08530B9F7809160029091E6
:104FC0006102009789F306C08091620290916302AA
:104FD000009799F3DF91CF911F910F910C94842743
:104FE0008091640290916502F3CF80916602909166
:104FF0006702009779F720916002309161028091F9
:1050000062029091630221153105D9F2009711F7E0
:10501000C901E0CFCF93DF9300D000D00F92CDB77E
:10502000DEB79093BB028093BA02811520E292070B
:1050300048F40F900F900F900F900F90DF91CF9149
:105040000C94340E8EEF89838A8381E08B830E94D7
:1050500030068160782F9D838C8349815A816B81D2
:105060008D810F900F900F900F900F90DF91CF9147
:105070000C942B25CF93DF93EC010E940A2880919A
:10508000A9039091AA030E94160FCE01DF91CF9140
:105090000C9484270F931F93CF93DF938C01862F5B
:1050A00060E672E00E949A13892BC9F4C0916002F5
:1050B000D0916102209799F0F8018081833069F4E2
:1050C000CE010E943A28CE010E943A28CE01DF91FB
:1050D000CF911F910F910C943A288430B8F7DF914B
:1050E000CF911F910F9108950F931F93CF93DF934B
:1050F0008C01EB0160E672E08C2F0E949A13892BE1
:1051000009F064C0FE01FF27D8018C91E85AFD4FD9
:105110008130D9F419969C911997992311F08083C5
:105120000CC01A969C919923D1F382E080838091E0
:105130006202909163020097D9F48091600290918D
:105140006102009709F442C013C08230E9F5199654
:105150008C91199781112DC01A968C9181110EC0D6
:1051600083E080838091640290916502009719F139
:10517000DF91CF911F910F910C940A2884E08083D6
:105180008091660290916702009791F7809160028A
:10519000909161020097F9F00E943A288091620292
:1051A00090916302009721F78091600290916102D3
:1051B000DFCF85E08083809160029091610200974B
:1051C00029F00E943A28F0CF86E08083DF91CF91CA
:1051D0001F910F9108958091620290916302B1CF67
:1051E0001F920F920FB60F9211242F933F934F935C
:1051F0005F936F937F938F939F93AF93BF93CF935F
:10520000DF93EF93FF93D091E900DF708091EC0082
:10521000C82FC17080FDC0E81092E9008091F000B5
:10522000877F8093F00078940E9472141092E900B6
:105230008091F00088608093F000CD2BCF70C093F8
:10524000E900FF91EF91DF91CF91BF91AF919F91D5
:105250008F917F916F915F914F913F912F910F901F
:105260000FBE0F901F9018951F920F920FB60F92BE
:1052700011242F933F934F935F936F937F938F935B
:105280009F93AF93BF93EF93FF938091E10082FFD1
:1052900009C08091E20082FF05C08091E1008B7F10
:1052A0008093E1008091DA0080FF24C08091D800D3
:1052B00080FF20C08091DA008E7F8093DA00809199
:1052C000D90080FF9DC080E189BD82E189BD09B41C
:1052D00000FEFDCF81E080939704809172048111DC
:1052E00009C00E9493040E945E058091E2008460E0
:1052F0008093E2008091E10080FF17C08091E2007E
:1053000080FF13C08091E2008E7F8093E200809145
:10531000E20080618093E2008091D80080628093F7
:10532000D80019BC85E0809397048091E10084FF48
:105330002BC08091E20084FF27C080E189BD82E11B
:1053400089BD89B5982F917080FFFBCF8091D800DF
:105350008F7D8093D8008091E1008F7E8093E10063
:105360008091E2008F7E8093E2008091E200816074
:105370008093E20080919804882309F447C084E078
:1053800080939704809197048091E10083FF27C068
:105390008091E20083FF23C08091E100877F8093AA
:1053A000E10082E080939704109298048091E100DC
:1053B0008E7F8093E1008091E2008E7F8093E200F7
:1053C0008091E20080618093E20042E060E080E052
:1053D0000E942C058091F00088608093F000FF917E
:1053E000EF91BF91AF919F918F917F916F915F915D
:1053F0004F913F912F910F900FBE0F901F901895D6
:1054000019BC109297041092720474CF8091E3003B
:1054100087FD93E090939704B5CF78941F921FB6C1
:105420001F9211248F939F93AF93BF938091690430
:1054300090916A04A0916B04B0916C040196A11D37
:10544000B11D8093690490936A04A0936B04B09398
:105450006C04BF91AF919F918F911F901FBE1F90C1
:1054600018951F921FB61F9211248F939F93AF938D
:10547000BF9380916804811113C080916904909159
:105480006A04A0916B04B0916C044196A11DB11DFA
:105490008093690490936A04A0936B04B0936C04A6
:1054A000BF91AF919F918F911F901FBE1F90189534
:1054B000CDB7DEB7E4970FB6F894DEBF0FBECDBF11
:1054C00084B7877F84BF0FB6F894A8958091600059
:1054D000886180936000109260000FBE80E890E0C9
:1054E0000FB6F89480936100909361000FBE85B76A
:1054F000806885BF85B7806885BF85EF98E0909309
:105500007D0180937C010E94AE130E9404140E94CE
:105510000C110E9493040E945E058091E200846059
:105520008093E2007894809197048823A1F01091F1
:10553000E9001F709091EC00892F817090FD80E848
:10554000182B1092E9008091E80083FD0E947214EC
:105550001F701093E90082E084BD93E095BD9AEF3F
:1055600097BD80936E000E94FD11811102C00E94C0
:105570008B1306E511E08CE5E82E81E0F82ED801CA
:105580008D918D018F3F11F00E94F708E016F10612
:10559000B1F70CE511E0BCE6EB2EB1E0FB2EF80113
:1055A00081918F018F3F11F00E94F708E016F106FC
:1055B000B1F78CE0EFE3F2E0DF01282F1D922A958E
:1055C000E9F7E3E2F2E0DF011D928A95E9F790E066
:1055D00080E00E94C8308A3E9E4F21F40E94FD1157
:1055E000811102C00E94461782E090E00E94C03004
:1055F000809330020E94161290936E0480936D0483
:105600000E949C23EFEFF6E721E0E150F0402040BC
:10561000E1F700C000000E949C2380913F0280FFC0
:1056200008C06FEF7FEF90E080E00E94EC300E94B6
:10563000F20E83E090E00E94C0300E94240D82E0D0
:1056400091E09093650480936404E8E16E2E712CE0
:10565000F0E45F2EABE48A2EA2E09A2E8E010F5F5B
:105660001F4F8091970460E1E62E72E1F72E85309E
:1056700009F424C10E949C23882359F08FB7F89421
:105680004091690450916A0460916B0470916C04BC
:105690008FBF5FE3C52E52E0D52EE1E3F2E0D601E5
:1056A000F12CE12C7E2D8D919D9121913191281726
:1056B000390709F413C12827392760E0AA24A394E5
:1056C000B12CA9014A215B21452B09F401C16BA72B
:1056D0007CA79C012A213B2191E0232B09F490E037
:1056E0009DA70E9430068160782F9FA78EA74BA5AB
:1056F0005CA56DA58FA50E942B25F701EE0FFF1F5E
:10570000EF5CFD4F80819181A826B926B182A082ED
:1057100086E0E2E5F2E0D80101900D928A95E1F78A
:10572000A0905402B0905502E0905602F0905702BB
:105730001092540210925502109256021092570283
:105740008A2D8B2991F080915002909151020E94F4
:105750002106AC0190914C02992309F4D8C08091A4
:1057600016018417150608F4E0C08E2D8F2991F0DC
:1057700080914E0290914F020E942106AC019091BF
:105780004B02992309F410C1809112018417150668
:1057900008F418C18091540290915502892B909180
:1057A0005602892B90915702892B11F00E944B07CA
:1057B00086E0F801A2E5B2E001900D928A95E1F74A
:1057C0000E94C70690912F02891721F00E94C706F8
:1057D00080932F0280919704843009F042CF83E0B8
:1057E0008093E9008091E80082FF3BCF8091E80040
:1057F00090E085FF0AC00E94B20450E2E52EF12C31
:105800005801882309F427C191E08091E8008B7743
:105810008093E800992309F424CFE090BC02F09033
:10582000BD028981E114F10409F423C18E3F09F01E
:105830006BC18A81833020F08550833008F064C1C9
:10584000EA81EE3008F060C1F0E0E05DFE4C0C94BF
:105850007D3080919704843009F1109268040FB66E
:10586000F894A895609260000FBE5092600083B7D4
:10587000817F846083BF83B7816083BF789488957C
:1058800083B78E7F83BF0FB6F894A8958091600090
:10589000886180936000109260000FBE8091960432
:1058A000882361F00E949C23EFE3F2E081919191C3
:1058B000892B09F0A3C38E169F06C1F78091970428
:1058C000853009F4C6CF0E945D140E94C706D2CE6F
:1058D0006F5FAA0CBB1C603109F0F3CE3FEFE31AF7
:1058E000F30A46E0E416F10409F0DCCE8FEF88AB52
:1058F00089AB1AAA0E9430068160782F9CAB8BABD3
:1059000048A959A96AA98CA90E942B2501CF2091E9
:1059100017018AE0289F900111242417350708F009
:1059200024CF9F5F90934C0202C09F3FD1F7AA20E3
:1059300059F00E942E089FEF1A140CF491E0899FF1
:10594000802D112480935402BB2059F00E942E0810
:105950009FEF1B140CF491E0899F802D11248093FC
:10596000550230915402332309F4FFCE20915502A1
:10597000222309F4FACE45EB3403C0011124992304
:1059800059F09093540245EB2403900111243323E2
:1059900039F030935502E9CE81E080935402F3CF81
:1059A00081E080935502E1CE209113018AE0289F87
:1059B000900111242417350708F0ECCE9F5F9093D7
:1059C0004B0202C09F3FD1F7EE2059F00E94F5072D
:1059D0009FEF1E140CF491E0899F802D1124809379
:1059E0005602FF2059F00E94F5079FEF1F140CF498
:1059F00091E0899F802D11248093570230915602A7
:105A0000332309F4C7CE20915702222309F4C2CED2
:105A100045EB3403C0011124992359F090935602A9
:105A200045EB240390011124332339F030935702BE
:105A3000B1CE81E080935602F3CF81E0809357028C
:105A4000A9CE8091F100D5018D935D01B1E0EB1AF3
:105A5000F10809F4D9CE8091E80085FDF2CF80915C
:105A6000E8008B778093E8000E94B204882399F3C2
:105A7000CBCE8D3009F4AEC0B0F4843009F491C0BF
:105A800040F4823041F108F07DC0813001F18FEFA8
:105A9000E1C2863009F49BC008F48EC08C30B9F79F
:105AA00080E18A8331C0813109F4EDC040F48F3048
:105AB00009F4BCC008F491C00E94821225C0833151
:105AC00009F40CC108F4E1C08E3F09F7B9CE1A827F
:105AD00089E08B8319C08A81823009F4DDC283306A
